:020000040800F2
:1000000000000220452B00084111000843110008A0
:1000100045110008471100084911000800000000C0
:100020000000000000000000000000004B1100086C
:100030004D110008000000004F1100085111000888
:10004000952B0008952B0008952B0008952B000890
:10005000952B0008952B0008952B0008952B000880
:10006000952B0008952B0008952B0008952B000870
:10007000952B0008952B0008952B0008952B000860
:10008000952B0008952B0008952B0008952B000850
:10009000952B0008952B0008952B0008952B000840
:1000A000952B0008952B0008952B0008952B000830
:1000B000952B0008952B0008952B0008952B000820
:1000C000952B0008952B0008952B0008952B000810
:1000D000952B0008952B0008952B0008952B000800
:1000E000952B0008952B0008952B0008952B0008F0
:1000F000952B0008952B0008952B0008952B0008E0
:10010000952B0008952B0008952B0008952B0008CF
:10011000952B0008952B0008952B0008952B0008BF
:10012000952B0008952B0008952B0008952B0008AF
:10013000952B00080000000000000000952B00082F
:10014000952B0008952B0008952B0008952B00088F
:10015000952B0008952B0008952B0008952B00087F
:10016000952B0008952B0008952B0008952B00086F
:10017000952B0008952B0008952B00080000000027
:1001800000000000952B00080000000000000000A7
:10019000952B00080000000000000000952B0008CF
:1001A000000000000000000000000000952B000887
:1001B000952B0008952B0008952B0008952B00081F
:0401C000952B000873
:1001D00001F0FF01102A2BDB10F0070F08D010F8F8
:1001E000013B013A8B422DD010F0070F42B3F6D1FC
:1001F000F0B441EA012141EA014122F007047FF015
:1002000000070023F0E80256083C85EA010586EA6B
:10021000010685FA47F5A3FA87F586FA47F6A5FAA7
:1002200087F68EB9EED1F0BC01F0FF0102F00702B3
:1002300032B110F8013B013A83EA010313B1F8D15E
:100240000020704701387047002D06BF354603383F
:10025000073815F0010F07D1013015F4807F02BF78
:10026000013015F4C03F0130F0BC0138704700BFC9
:10027000034613F8012B002AFBD1181A01387047E6
:1002800081F0004102E000BF83F0004330B54FEA47
:1002900041044FEA430594EA050F08BF90EA020FB4
:1002A0001FBF54EA000C55EA020C7FEA645C7FEA47
:1002B000655C00F0E2804FEA5454D4EB5555B8BF6A
:1002C0006D420CDD2C4480EA020281EA030382EADB
:1002D000000083EA010180EA020281EA0303362D6D
:1002E00088BF30BD11F0004F4FEA01314FF4801C40
:1002F0004CEA113102D0404261EB410113F0004F52
:100300004FEA03334CEA133302D0524263EB430308
:1003100094EA050F00F0A780A4F10104D5F1200EA6
:100320000DDB02FA0EFC22FA05F2801841F1000101
:1003300003FA0EF2801843FA05F359410EE0A5F1D5
:1003400020050EF1200E012A03FA0EFC28BF4CF006
:10035000020C43FA05F3C01851EBE37101F00045BC
:1003600007D54FF0000EDCF1000C7EEB00006EEBC9
:100370000101B1F5801F1BD3B1F5001F0CD3490853
:100380005FEA30004FEA3C0C04F101044FEA4452AA
:1003900012F5800F80F09A80BCF1004F08BF5FEA31
:1003A000500C50F1000041EB045141EA050130BD11
:1003B0005FEA4C0C404141EB0101013C28BFB1F523
:1003C000801FE9D291F0000F04BF01460020B1FA6E
:1003D00081F308BF2033A3F10B03B3F120020CDA41
:1003E0000C3208DD02F1140CC2F10C0201FA0CF01F
:1003F00021FA02F10CE002F11402D8BFC2F1200C84
:1004000001FA02F120FA0CFCDCBF41EA0C01904039
:10041000E41AA2BF01EB0451294330BD6FEA040482
:100420001F3C1CDA0C340EDC04F11404C4F120026D
:1004300020FA04F001FA02F340EA030021FA04F37F
:1004400045EA030130BDC4F10C04C4F1200220FAD6
:1004500002F001FA04F340EA0300294630BD21FA14
:1004600004F0294630BD94F0000F83F4801306BFDA
:1004700081F480110134013D4EE77FEA645C18BFCE
:100480007FEA655C29D094EA050F08BF90EA020F65
:1004900005D054EA000C04BF1946104630BD91EA5D
:1004A000030F1EBF0021002030BD5FEA545C05D160
:1004B0004000494128BF41F0004130BD14F580049F
:1004C0003CBF01F5801130BD01F0004545F0FE4113
:1004D00041F470014FF0000030BD7FEA645C1ABF48
:1004E000194610467FEA655C1CBF0B46024650EA7F
:1004F000013406BF52EA033591EA030F41F40021AB
:1005000030BD00BF90F0000F04BF0021704730B530
:100510004FF4806404F132044FF000054FF0000105
:1005200050E700BF90F0000F04BF0021704730B5C6
:100530004FF4806404F1320410F0004548BF40429B
:100540004FF000013EE700BF42004FEAE2014FEAF0
:1005500031014FEA02701FBF12F07F4393F07F4FCB
:1005600081F06051704732F07F4208BF704793F0CE
:100570007F4F04BF41F40021704730B54FF46074E1
:1005800001F0004521F000411CE700BF50EA0102E4
:1005900008BF704730B54FF000050AE050EA01028D
:1005A00008BF704730B511F0004502D5404261EBFD
:1005B00041014FF4806404F132045FEA915C3FF43E
:1005C000D8AE4FF003025FEADC0C18BF03325FEADB
:1005D000DC0C18BF033202EBDC02C2F1200300FA8C
:1005E00003FC20FA02F001FA03FE40EA0E0021FAB1
:1005F00002F11444BDE600BF70B54FF0FF0C4CF49F
:10060000E06C1CEA11541DBF1CEA135594EA0C0F50
:1006100095EA0C0F00F0DEF82C4481EA030621EA8B
:100620004C5123EA4C5350EA013518BF52EA0335C6
:1006300041F4801143F4801338D0A0FB02CE4FF078
:100640000005E1FB02E506F00042E0FB03E54FF0A8
:100650000006E1FB03569CF0000F18BF4EF0010EA0
:10066000A4F1FF04B6F5007F64F5407404D25FEA9C
:100670004E0E6D4146EB060642EAC62141EA55514F
:100680004FEAC52040EA5E504FEACE2EB4F1FD0C91
:1006900088BFBCF5E06F1ED8BEF1004F08BF5FEA0F
:1006A000500E50F1000041EB045170BD06F00046C1
:1006B00046EA010140EA020081EA0301B4EB5C046E
:1006C000C2BFD4EB0C0541EA045170BD41F4801166
:1006D0004FF0000E013C00F3AB8014F1360FDEBF8B
:1006E000002001F0004170BDC4F10004203C35DA67
:1006F0000C341BDC04F11404C4F1200500FA05F3EA
:1007000020FA04F001FA05F240EA020001F000428A
:1007100021F0004110EBD37021FA04F642EB060100
:100720005EEA430E08BF20EAD37070BDC4F10C042A
:10073000C4F1200500FA04F320FA05F001FA04F2EE
:1007400040EA020001F0004110EBD37041F10001DA
:100750005EEA430E08BF20EAD37070BDC4F12005E5
:1007600000FA05F24EEA020E20FA04F301FA05F24D
:1007700043EA020321FA04F001F0004121FA04F2F5
:1007800020EA020000EBD3705EEA430E08BF20EAC5
:10079000D37070BD94F0000F0FD101F000464000FF
:1007A00041EB010111F4801F08BF013CF7D041EA81
:1007B000060195F0000F18BF704703F00046520085
:1007C00043EB030313F4801F08BF013DF7D043EA56
:1007D0000603704794EA0C0F0CEA135518BF95EA0C
:1007E0000C0F0CD050EA410618BF52EA4306D1D193
:1007F00081EA030101F000414FF0000070BD50EAB2
:10080000410606BF1046194652EA430619D094EA3B
:100810000C0F02D150EA013613D195EA0C0F05D125
:1008200052EA03361CBF104619460AD181EA030179
:1008300001F0004141F0FE4141F470014FF0000031
:1008400070BD41F0FE4141F4780170BD70B54FF0CC
:10085000FF0C4CF4E06C1CEA11541DBF1CEA13554C
:1008600094EA0C0F95EA0C0F00F0A7F8A4EB05042E
:1008700081EA030E52EA03354FEA013100F0888025
:100880004FEA03334FF0805545EA131343EA1263EE
:100890004FEA022245EA111545EA10654FEA0026A3
:1008A0000EF000419D4208BF964244F1FD0404F55C
:1008B000407402D25B084FEA3202B61A65EB0305B8
:1008C0005B084FEA32024FF480104FF4002CB6EB75
:1008D000020E75EB030E22BFB61A754640EA0C00F5
:1008E0005B084FEA3202B6EB020E75EB030E22BF35
:1008F000B61A754640EA5C005B084FEA3202B6EB76
:10090000020E75EB030E22BFB61A754640EA9C0034
:100910005B084FEA3202B6EB020E75EB030E22BF04
:10092000B61A754640EADC0055EA060E18D04FEAC2
:10093000051545EA16754FEA06164FEAC30343EA62
:1009400052734FEAC2025FEA1C1CC0D111F4801F2F
:100950000BD141EA00014FF000004FF0004CB6E728
:1009600011F4801F04BF01430020B4F1FD0C88BFC7
:10097000BCF5E06F3FF6AFAEB5EB030C04BFB6EBD2
:10098000020C5FEA500C50F1000041EB045170BDC5
:100990000EF0004E4EEA113114EB5C04C2BFD4EBF2
:1009A0000C0541EA045170BD41F480114FF0000E76
:1009B000013C90E645EA060E8DE60CEA135594EAF2
:1009C0000C0F08BF95EA0C0F3FF43BAF94EA0C0FF5
:1009D0000AD150EA01347FF434AF95EA0C0F7FF46A
:1009E00025AF104619462CE795EA0C0F06D152EABE
:1009F00003353FF4FDAE1046194622E750EA4106A2
:100A000018BF52EA43067FF4C5AE50EA41047FF4B2
:100A10000DAF52EA43057FF4EBAE12E74FF0FF3C17
:100A200006E000BF4FF0010C02E000BF4FF0010CE8
:100A30004DF804CD4FEA410C7FEA6C5C4FEA430C61
:100A400018BF7FEA6C5C1BD001B050EA410C0CBFB0
:100A500052EA430C91EA030F02BF90EA020F002012
:100A6000704710F1000F91EA030F58BF994208BF79
:100A700090422CBFD8176FEAE37040F00100704736
:100A80004FEA410C7FEA6C5C02D150EA013C07D18D
:100A90004FEA430C7FEA6C5CD6D152EA033CD3D0D8
:100AA0005DF8040B704700BF8446104662468C46D2
:100AB0001946634600E000BF01B5FFF7B7FF002805
:100AC00048BF10F1000F01BD4DF808EDFFF7F4FF2E
:100AD0000CBF012000205DF808FB00BF4DF808EDB9
:100AE000FFF7EAFF34BF012000205DF808FB00BFDC
:100AF0004DF808EDFFF7E0FF94BF012000205DF8FE
:100B000008FB00BF4DF808EDFFF7CEFF94BF0120B2
:100B100000205DF808FB00BF4DF808EDFFF7C4FFAB
:100B200034BF012000205DF808FB00BF4FEA410CF4
:100B30007FEA6C5C02D150EA013C0AD14FEA430CD7
:100B40007FEA6C5C02D152EA033C02D14FF0000014
:100B500070474FF0010070474FEA410212F5001252
:100B600015D211D56FF47873B3EB625212D94FEAF4
:100B7000C12343F0004343EA505311F0004F23FADE
:100B800002F018BF404270474FF00000704750EA33
:100B9000013005D111F0004008BF6FF000407047F0
:100BA0004FF00000704700BF4FEA4102B2F1E0434E
:100BB00024BFB3F5001CDCF1FE5C0DD901F0004C44
:100BC0004FEAC0024CEA5070B2F1004F40EB830094
:100BD00008BF20F00100704711F0804F21D113F1C0
:100BE0003872BCBF01F00040704741F480114FEAF9
:100BF0005252C2F11802C2F1200C10FA0CF320FA82
:100C000002F018BF40F001004FEAC1234FEAD3239E
:100C100003FA0CFC40EA0C0023FA02F34FEA430308
:100C2000CCE77FEA625307D150EA01331EBF4FF091
:100C3000FE4040F44000704701F0004040F0FE40AC
:100C400040F40000704700BF53B94AB9002908BFFB
:100C500000281CBF4FF0FF314FF0FF3000F00CB800
:100C6000ADF1080C6DE904CE04F0AAFEDDF804E055
:100C7000DDE9022304B07047704700BF0348044B0E
:100C8000834202D0034B03B118477047D4010020C0
:100C9000D4010020000000000548064B1B1AD90FA4
:100CA00001EBA301491002D0034B03B11847704771
:100CB000D4010020D40100200000000010B5064C33
:100CC000237843B9FFF7DAFF044B13B10448AFF3BD
:100CD00000800123237010BDD4010020000000001B
:100CE0007C5C000808B5054B1BB105490548AFF30E
:100CF0000080BDE80840FFF7CFBF00BF0000000044
:100D0000D80100207C5C000884B000220192104BC6
:100D1000196B41F080011963196B01F08001019199
:100D200001990292196B41F001011963196B01F0ED
:100D300001010291029903921A6B42F002021A63B6
:100D40001B6B03F002030393039B04B0704700BFC7
:100D5000003802402DE9F04186B06423029301235C
:100D600001930DF1170200927522D0211F4800F067
:100D70005FFE9DF81730D02B02D006B0BDE8F081A1
:100D80004FF000088DF81680184D64270297012453
:100D900001940DF11606009623466B22D0212846B9
:100DA00000F094FD07238DF8163002970194009609
:100DB00023461922D021284600F088FD8DF81680A0
:100DC00002970194009623461C22D021284600F069
:100DD0007DFD8DF8168002970194009623461B2214
:100DE000D021284600F072FDC7E700BFB8020020FE
:100DF00030B587B0642302930623019304AB0093BC
:100E000001233B22D021204800F012FE9DF8103033
:100E10009DF8110040EA032000B21C4B18809DF899
:100E200012309DF8135045EA03252DB2184B1D8052
:100E30009DF814309DF8154044EA032424B2154B64
:100E40001C80FFF76FFB0022134BFFF7D5FBFFF76A
:100E5000ABFE124B18602846FFF764FB00220E4BD6
:100E6000FFF7CAFBFFF7A0FE0D4B18602046FFF707
:100E700059FB0022084BFFF7BFFBFFF795FE094B1C
:100E8000186007B030BD00BFB8020020F401002098
:100E9000F2010020F00100200000303F0402002099
:100EA00000020020FC01002030B587B064230293CB
:100EB0000623019304AB009301233B22D021244855
:100EC00000F0B6FD9DF810309DF8110040EA0320B7
:100ED00000B2204B18809DF812309DF8135045EA5F
:100EE00003252DB21C4B1D809DF814309DF8154034
:100EF00044EA032424B2194B1C80FFF713FB12A30E
:100F0000D3E90023FFF7A2FCFFF74EFE144B186055
:100F10002846FFF707FB0CA3D3E90023FFF796FC55
:100F2000FFF742FE0F4B18602046FFF7FBFA06A3BF
:100F3000D3E90023FFF78AFCFFF736FE0A4B18605F
:100F400007B030BDAFF300800000000000605040EB
:100F5000B8020020FA010020F8010020F60100206C
:100F6000100200200C0200200802002072B6FEE7EA
:100F700008B50A480A4B03600A4B436000238360AC
:100F8000C3604FF48042026143618361C3610362C5
:100F900000F0BEFB00B908BDFFF7E8FFB802002073
:100FA00000540040A086010008B50A480A4B0360BF
:100FB0004FF4E133436000238360C36003610C227C
:100FC00042618361C36101F017FD00B908BDFFF7FD
:100FD000CDFF00BF740200200044004000B595B072
:100FE0003422002107A802F06AFB00230293039336
:100FF0000493059306930093234A116C41F08051AA
:101000001164126C02F080520092009A01931F4BFF
:101010001A6842F440421A601B6803F4404301938B
:10102000019B012307934FF48033089302230D9310
:101030004FF480020E9204220F92B4221092119368
:101040001293139307A800F0FBFFB0B901F006FB61
:10105000A8B90F23029302230393002304934FF4B0
:10106000A05305934FF480530693052102A800F086
:1010700051FE30B915B05DF804FBFFF777FFFFF7BD
:1010800075FFFFF773FF00BF00380240007000409B
:1010900080B501F0A5FBFFF7A1FFFFF735FEFFF7D5
:1010A00067FFFFF781FFFFF755FEFFF7A1FEFFF790
:1010B000FBFE1B4C2068FFF747FA02460B46194F10
:1010C0001949384602F098FA2068FFF73DFA0246BF
:1010D0000B46164E1649304602F08EFA2068FFF78E
:1010E00033FA02460B46134D1349284602F084FAA0
:1010F000124C64231E223946204601F0ACFC6423C6
:101100001E223146204601F0A6FC64231E222946F9
:10111000204601F0A0FC4FF4FA7001F08DFBC4E70B
:101120000802002054020020985C000834020020CD
:10113000A45C000814020020B45C000874020020C3
:10114000FEE7FEE7FEE7FEE7FEE770477047704701
:1011500008B501F05FFB08BD00B583B00021009128
:101160000C4B5A6C42F480425A645A6C02F480422E
:101170000092009A01911A6C42F080521A641B6C22
:1011800003F080530193019B072001F0A5FA03B0FF
:101190005DF804FB0038024030B589B000230393AA
:1011A00004930593069307930268144B9A4201D067
:1011B00009B030BD00250195114C236B43F00203AB
:1011C0002363236B03F002030193019B4FF44073ED
:1011D000039312230493032306930423079303A981
:1011E000084801F04FF90295236C43F4001323647F
:1011F000236C03F400130293029BD9E700540040D0
:10120000003802400004024000B589B00023039377
:1012100004930593069307930268154B9A4202D0F4
:1012200009B05DF804FB0021019103F5FA331A6C53
:1012300042F400321A641A6C02F400320192019AEC
:1012400002911A6B42F001021A631B6B03F0010357
:101250000293029B0C23039302230493032306931C
:101260000723079303A9034801F00CF9D8E700BF4F
:10127000004400400000024003685A6912F4806F85
:1012800001D1002070476FF480625A61002303632C
:10129000202280F83D2080F83E30026C42F00402AB
:1012A000026480F83C30012070472DE9F041074688
:1012B0000D4690461E4624E001F0B8FA069BC01A7F
:1012C000B04200D8EEB900233B63202287F83D20CE
:1012D00087F83E303A6C42F020023A6487F83C309E
:1012E00001201EE03B689C6925EA040C1FFA8CFC77
:1012F000BCFA8CFC4FEA5C1CE04511D1B6F1FF3F13
:10130000DAD1C5F30743012BECD13B685B6925EAD1
:10131000030C1FFA8CFCBCFA8CFC4FEA5C1CEBE75C
:101320000020BDE8F0812DE9F04105460E46174644
:1013300098463DE01A6842F400721A602B686FF418
:1013400080625A6100232B63202285F83D2085F8B6
:101350003E302A6C42F004022A6485F83C300120B9
:1013600034E001F063FAA0EB0800B84200D8FFB9FE
:1013700000232B63202285F83D2085F83E302A6C1F
:1013800042F020022A6485F83C3001201EE02B68E0
:101390009C6926EA0404A4B2003C18BF0124A4B14D
:1013A0002B685A6912F4806FC4D1B7F1FF3FD8D1CE
:1013B000C6F30743012BEAD12B685C6926EA0404D3
:1013C000A4B2003C18BF0124E9E70020BDE8F08189
:1013D00070B504460D46164623685B6913F0800F0E
:1013E0001CD12046FFF748FFD0B9B5F1FF3FF3D03D
:1013F00001F01CFA801BA84201D8002DECD100237B
:101400002363202284F83D2084F83E30226C42F091
:101410002002226484F83C30012000E0002070BDEE
:101420000120FCE72DE9F04385B004460D469146C6
:101430001F46DDF830800D9E0368196841F4807105
:1014400019600096434600224FF00111FFF72DFF6F
:1014500060B9236805F0FE051D6133464246264902
:101460002046FFF760FF68B1012008E023681B6891
:1014700013F4807F02D04FF400732364032005B07F
:10148000BDE8F0830023039323685A6903929B69A4
:101490000393039B324641462046FFF799FF30B93C
:1014A000012F0FD123685FFA89F61E61E7E7236CED
:1014B000042B01D00120E2E72268136843F4007393
:1014C0001360F7E723684FEA19221A613246414652
:1014D0002046FFF77DFF20B923685FFA89F61E6179
:1014E000CDE7236C042B01D00120C8E722681368E4
:1014F00043F400731360F7E7020001002DE9F047A1
:1015000084B004460D46164699460C9FDDF834809B
:101510000268136843F4806313600368196841F438
:1015200080711960CDF800803B4600224FF0011118
:10153000FFF7BBFE70B95FFA85FA236805F0FE0578
:101540001D6143463A4641492046FFF7ECFE68B12B
:10155000012008E023681B6813F4807F02D04FF459
:1015600000732364032004B0BDE8F08700230393D5
:1015700023685A6903929B690393039B4246394649
:101580002046FFF725FF80B9B9F1010F18D1236874
:10159000F6B21E61424639462046FFF719FF68B38E
:1015A000236C042B24D00120DDE7236C042B01D015
:1015B0000120D8E72268136843F400731360F7E74B
:1015C0002368320A1A61424639462046FFF700FF77
:1015D00018B92368F6B21E61DCE7236C042B01D036
:1015E0000120C0E72268136843F400731360F7E733
:1015F0002268136843F400731360D4E72268136809
:1016000043F480731360CDF800803B4600224FF016
:1016100001112046FFF749FE68B922684AF001032C
:10162000136143463A4609492046FFF77CFE0028ED
:1016300099D0012097E723681B6813F4807F02D0BC
:101640004FF40073236403208DE700BF0200010004
:1016500070B504460D46164623685B6913F0040F07
:101660001CD12046FFF708FED0B9B5F1FF3FF3D0FB
:1016700001F0DCF8801BA84201D8002DECD100233A
:101680002363202284F83D2084F83E30226C42F00F
:101690002002226484F83C30012000E0002070BD6C
:1016A0000120FCE770B505460C4616462B685969C3
:1016B00011F0400F29D1596911F0100F15D101F027
:1016C000B5F8801BA04201D8002CEFD100232B637A
:1016D000202285F83D2085F83E302A6C42F0200219
:1016E0002A6485F83C30012070BD6FF010025A6109
:1016F00000232B63202285F83D2085F83E302A6C9C
:101700002A6485F83C300120EEE70020ECE7000079
:10171000002800F0CC8070B5044690F83D30002BD6
:1017200077D0242384F83D302268136823F0010326
:1017300013602268136843F400431360226813683F
:1017400023F40043136000F09BFB62685A4B9A42FB
:1017500064D85A4B98428CBF00230123002B40F0E1
:10176000A8805749A1FB00318B0C25686A6822F0DC
:101770003F0242EA91426A6021680A6A22F03F020F
:1017800066684D4DAE424FD8013313430B6221685A
:10179000CA6922F44F4222F0FF026668464B9E421D
:1017A0004CD8431E7600B3FBF6F3013340F6FC70D1
:1017B000034278D0C3F30B031343CB6121680B685A
:1017C00023F0C003E269206A024313430B602168DF
:1017D0008B6823F4034323F0FF032269E06802438C
:1017E00013438B602168CB6823F0FF036269A06913
:1017F00002431343CB602268136843F00103136074
:1018000000202064202384F83D30206384F83E00CB
:1018100070BD80F83C30FFF7BFFC82E7294B98424F
:101820008CBF0023012399E74FF4967505FB03F362
:10183000254DA5FB03539B090133A6E7A368BBB95C
:10184000451E06EB460CB5FBFCF50135C5F30B0553
:10185000B5FA85F56D0945BBC3B9013806EB4603FA
:10186000B0FBF3F30133C3F30B0343F40043A3E7EB
:10187000451E06EB860C0CEB8C0CB5FBFCF501351C
:10188000C5F30B05B5FA85F56D09E4E7013806EBFC
:10189000860303EB8303B0FBF3F30133C3F30B03C2
:1018A00043F4404388E7042386E7012384E70120CB
:1018B00070470120ACE700BFA08601007F841E00B6
:1018C00083DE1B43FF083D00D34D62102DE9F0433A
:1018D00083B004460F46904699460C9E00F0A6FF42
:1018E000054694F83D00C0B2202803D0022003B082
:1018F000BDE8F0830095192301224B492046FFF7EC
:10190000D4FC002840F0898094F83C30012B00F092
:101910008680012384F83C3023681A6812F0010F96
:1019200003D11A6842F001021A602268136823F496
:1019300000631360212384F83D30402384F83E3057
:10194000002323640A9B6362BDF82C306385638D9A
:101950002385364BE362019500964B464246394655
:101960002046FFF75FFD00285BD1238D002B35D08B
:101970002A4631462046FFF72BFD20BB626A2368CA
:1019800012781A61626A531C6362218D013989B22F
:101990002185638D9BB2013B9BB2638523685869A7
:1019A00010F0040FE1D00029DFD052781A61636A89
:1019B00001336362238D013B2385638D9BB2013B21
:1019C0009BB26385D1E7236C042B01D001208EE705
:1019D0002268136843F400731360F7E72A46314620
:1019E0002046FFF735FE50B1236C042B01D00120B7
:1019F0007DE72268136843F400731360F7E72268F9
:101A0000136843F400731360202384F83D300023EF
:101A100084F83E3084F83C3069E7022067E7022012
:101A200065E7012063E700BF020010000000FFFF30
:101A30002DE9F04387B004460F4690469946109E24
:101A400000F0F4FE054694F83D00C0B2202804D012
:101A50000227384607B0BDE8F0830095192301221C
:101A600088492046FFF721FC002840F0438194F884
:101A70003C30012B00F04081012384F83C30236886
:101A80001A6812F0010F03D11A6842F001021A60BD
:101A90002268136823F400631360222384F83D3026
:101AA000402384F83E30002323640E9B6362BDF81C
:101AB0003C306385638D2385734BE362019500960B
:101AC0004B46424639462046FFF718FD0746002898
:101AD00040F01481238D5BB9029323685A69029206
:101AE0009A690292029A1A6842F400721A6075E0CA
:101AF000012B0AD0022B1AD00023059323685A69C0
:101B000005929B690593059B68E02268136823F49E
:101B1000806313600023039323685A6903929A69D0
:101B20000392039A1A6842F400721A6056E022681F
:101B3000136823F4806313602268136843F400631E
:101B400013600023049323685A6904929B690493E9
:101B5000049B43E02A4631462046FFF7A3FD0028B8
:101B600040F0CE8023681A69636A1A70636A013391
:101B70006362238D013B2385638D9BB2013B9BB246
:101B800063852BE000953346002240492046FFF74D
:101B90008CFB002840F0B6802268136843F4007381
:101BA000136023681A69636A1A70626A531C63625D
:101BB000238D013B2385638D9BB2013B9BB26385E3
:101BC00023681B695370636A01336362238D013B91
:101BD0002385638D9BB2013B9BB26385238D002BD4
:101BE0007FD0032B54D8012BB4D0022BCAD0009540
:101BF0003346002225492046FFF757FB002840F0D6
:101C000083802268136823F48063136023681A6951
:101C1000636A1A70636A01336362238D013B238513
:101C2000638D9BB2013B9BB26385009533460022D6
:101C300016492046FFF739FB002867D12268136850
:101C400043F40073136023681A69636A1A70626A46
:101C5000531C6362238D013B2385638D9BB2013B43
:101C60009BB2638523681B695370636A01336362A7
:101C7000238D013B2385638D9BB2013B9BB2638522
:101C8000ACE700BF020010000000FFFF04000100ED
:101C90002A4631462046FFF705FD002838D1236843
:101CA0001A69636A1A70626A531C6362238D013B6E
:101CB0002385638D9BB2013B9BB263852368596981
:101CC00011F0040F8AD01B695370636A0133636299
:101CD000238D013B2385638D9BB2013B9BB26385C2
:101CE0007CE7202384F83D30002384F83E3084F8DC
:101CF0003C30AEE60227ACE60227AAE60127A8E6BA
:101D00000127A6E60127A4E60127A2E60127A0E60F
:101D100001279EE6002800F09B8070B50D46044622
:101D20004F4B1B6803F00F038B4208D2CBB24C4AD7
:101D30001370136803F00F038B4240F08B8023680D
:101D400013F0020F17D013F0040F04D0454A936824
:101D500043F4E0539360236813F0080F04D0414A22
:101D6000936843F4604393603E4A936823F0F00322
:101D7000A1680B439360236813F0010F32D06368AE
:101D8000012B21D09A1E012A25D9364A126812F059
:101D9000020F61D033498A6822F0030213438B603B
:101DA00000F044FD06462F4B9B6803F00C0362686D
:101DB000B3EB820F16D000F039FD801B41F288335F
:101DC0009842F0D9032042E0264A126812F4003FFC
:101DD000E0D101203BE0234A126812F0007FD9D104
:101DE000012034E01E4B1B6803F00F03AB4207D900
:101DF000EAB21B4B1A701B6803F00F03AB422DD1E4
:101E0000236813F0040F06D0164A936823F4E053B6
:101E1000E1680B439360236813F0080F07D0114A61
:101E2000936823F46043216943EAC103936000F09F
:101E300047F80C4B9B68C3F303130B4AD35CD840A1
:101E40000A4B18600A4B186800F0A4FC002070BD13
:101E5000012070470120FAE70120F8E70120F6E7AA
:101E6000003C024000380240C05C0008080000202E
:101E700004000020014B1868704700BF08000020D4
:101E800008B5FFF7F7FF044B9B68C3F38223034AAF
:101E9000D35CD84008BD00BF00380240D05C0008C9
:101EA00008B5FFF7E7FF044B9B68C3F34233034ACF
:101EB000D35CD84008BD00BF00380240D05C0008A9
:101EC00008B55C4B9B6803F00C03082B07D00C2B68
:101ED0005BD0042B01D0584808BD5848FCE7554B4F
:101EE0005A6802F03F025B6813F4800F2AD0514B0E
:101EF0005968C1F3881C4FEA4C11B1EB0C006EEB32
:101F00000E0E4FEA8E1343EA90638101091A63EBC8
:101F10000E03DB0043EA5173C90011EB0C0C43F1D3
:101F20000003590200234FEA4C2041EADC51FEF73E
:101F30008BFE404B5B68C3F3014301335B00B0FB96
:101F4000F3F0C9E73B4B5968C1F3881C4FEA4C11C9
:101F5000B1EB0C006EEB0E0E4FEA8E1343EA90636A
:101F60008101091A63EB0E03DB0043EA5173C900D8
:101F700011EB0C0C43F10003990200234FEA8C2073
:101F800041EA9C51FEF760FED3E72A4B5A6802F003
:101F90003F025B6813F4800F28D0264B5968C1F3C9
:101FA000881C4FEA4C11B1EB0C006EEB0E0E4FEAA1
:101FB0008E1343EA90638101091A63EB0E03DB0081
:101FC00043EA5173C90011EB0C0C43F100035902B1
:101FD00000234FEA4C2041EADC51FEF735FE154B59
:101FE0005B68C3F30273B0FBF3F075E7114B5968FC
:101FF000C1F3881C4FEA4C11B1EB0C006EEB0E0ED6
:102000004FEA8E1343EA90638101091A63EB0E03D2
:10201000DB0043EA5173C90011EB0C0C43F10003E0
:10202000990200234FEA8C2041EA9C51FEF70CFEF6
:10203000D5E700BF003802400024F40000127A0007
:10204000002800F0018270B582B00446036813F0E6
:10205000010F41D0994B9B6803F00C03042B32D045
:10206000964B9B6803F00C03082B27D0934B9B687F
:1020700003F00C030C2B59D06368B3F5803F5BD0A1
:10208000B3F5A02F5ED08D4B1A6822F480321A600F
:102090001A6822F480221A606368002B5CD000F07A
:1020A000C5FB0546854B1B6813F4003F14D100F0B7
:1020B000BDFB401B6428F5D90320CCE17F4B5B6856
:1020C00013F4800FD2D07D4B1B6813F4003F03D074
:1020D0006368002B00F0BA81236813F0020F60D010
:1020E000764B9B6813F00C0F4AD0744B9B6803F03F
:1020F0000C03082B3FD0714B9B6803F00C030C2B97
:1021000069D0E368002B75D06D4B01221A6000F096
:102110008DFB0546694B1B6813F0020F61D100F07F
:1021200085FB401B0228F5D9032094E1634B5B68D3
:1021300013F4800FA0D0C6E7604A136843F48033DD
:102140001360A9E75D4B1A6842F480221A601A688E
:1021500042F480321A609FE700F068FB0546574B57
:102160001B6813F4003FB7D000F060FB401B6428ED
:10217000F5D903206FE1514B5B6813F4800FBAD19E
:102180004E4B1B6813F0020F03D0E368012B40F0A5
:102190005F814A4A136823F0F803216943EAC103C7
:1021A0001360236813F0080F49D06369002B33D004
:1021B000434B0122C3F8802E00F038FB05463F4B0D
:1021C0005B6F13F0020F3AD100F030FB401B022886
:1021D000F5D903203FE1394B5B6813F4800F90D1B0
:1021E000CEE7364A136823F0F803216943EAC103B6
:1021F0001360D6E7324B00221A6000F017FB054649
:102200002E4B1B6813F0020FCBD000F00FFB401BCE
:102210000228F5D903201EE1294B0022C3F8802EA5
:1022200000F004FB0546254B5B6F13F0020F06D050
:1022300000F0FCFA401B0228F5D903200BE12368CB
:1022400013F0040F76D01D4B1B6C13F0805F33D15D
:1022500000230193194B1A6C42F080521A641B6CD4
:1022600003F080530193019B0125164B1B6813F467
:10227000807F29D0A368012B3AD0052B3ED00F4B8D
:102280001A6F22F001021A671A6F22F004021A670D
:10229000A368002B3CD000F0C9FA0646074B1B6F21
:1022A00013F0020F45D100F0C1FA801B41F28833D0
:1022B0009842F3D90320CEE00025D6E7003802404B
:1022C00000004742007000406B4A136843F480737B
:1022D000136000F0ABFA0646674B1B6813F4807F6F
:1022E000C8D100F0A3FA801B0228F5D90320B2E080
:1022F000624A136F43F001031367C9E75F4B1A6F1C
:1023000042F004021A671A6F42F001021A67BFE72F
:1023100000F08CFA0646594B1B6F13F0020F08D0E1
:1023200000F084FA801B41F288339842F3D90320ED
:1023300091E0EDB9A369002B00F08C804F4A9268C0
:1023400002F00C02082A54D0022B17D04C4B00226A
:102350001A6600F06BFA0446484B1B6813F0007FC6
:1023600045D000F063FA001B0228F5D9032072E083
:10237000424A136C23F080531364DBE7404B002286
:102380001A6600F053FA05463C4B1B6813F0007FB9
:1023900006D000F04BFA401B0228F5D903205AE082
:1023A000E369226A1343626A43EA8213A26A52080B
:1023B000013A43EA0243E26A43EA0263226B43EAD8
:1023C00002732E4A53602E4B01221A6600F02EFA39
:1023D00004462A4B1B6813F0007F06D100F026FA52
:1023E000001B0228F5D9032035E0002033E000204F
:1023F00031E0012B31D0214B5B6803F48001E269AD
:1024000091422CD103F03F02216A8A4229D1616AAC
:1024100047F6C0721A40B2EB811F24D103F4403159
:10242000A26A5208013AB1EB024F1ED103F070626A
:10243000E16AB2EB016F1AD103F0E043226BB3EB18
:10244000027F16D1002006E001207047012002E043
:10245000012000E0002002B070BD0120FBE7012058
:10246000F9E70120F7E70120F5E70120F3E7012074
:10247000F1E70120EFE700BF0070004000380240A4
:102480000000474200230F2B00F2DE8070B582B0BF
:1024900060E085685E000324B44025EA0405CC684A
:1024A000B4402C438460456825EA02054C68C4F3B7
:1024B00000129A402A4342605AE0DC08083450F87F
:1024C000246003F0070295000F22AA4026EA020EBC
:1024D0000A69AA4042EA0E0240F824205CE0062283
:1024E00000E0002202FA0EF22A430234574D45F86A
:1024F0002420574A94686FEA0C0224EA0C054E68BF
:1025000016F4801F01D04CEA0405514CA560E46824
:1025100002EA04054E6816F4001F01D04CEA0405D7
:102520004B4CE560646802EA04054E6816F4003F0F
:1025300001D04CEA0405464C6560246822404D6891
:1025400015F4803F01D04CEA0402414C2260013373
:102550000F2B77D801229A400C6804EA020C32EA69
:102560000404F4D14C6804F00304013C012C90D91C
:102570004A6802F00302032A09D0C4685D000322FE
:10258000AA4024EA02048A68AA402243C2604A6838
:1025900002F00302022A90D004684FEA430E03229D
:1025A00002FA0EF224EA02044A6802F0030202FA76
:1025B0000EF2224302604A6812F4403FC7D0002264
:1025C0000192244A546C44F480445464526C02F4E2
:1025D00080420192019A9C08A51C1C4A52F8255081
:1025E00003F003024FEA820E0F2202FA0EF225EAEE
:1025F0000205194A90423FF474AF02F5806290429E
:1026000016D002F58062904214D002F580629042AA
:1026100012D002F58062904210D002F580629042A2
:102620000ED002F5806290423FF459AF072259E77D
:10263000012257E7022255E7032253E7042251E71C
:1026400005224FE702B070BD704700BF003801405F
:10265000003C0140003802400000024010B582B04A
:1026600000230193194B1A6C42F080521A641B6CC0
:1026700003F080530193019B154B01221A6400F073
:10268000D5F80446134B5B6813F4803F08D100F083
:10269000CDF8001BB0F57A7FF4D9032002B010BD4D
:1026A0000B4B01225A6400F0C1F80446094B5B68E9
:1026B00013F4003F07D100F0B9F8001BB0F57A7FA2
:1026C000F4D90320EAE70020E8E700BF0038024021
:1026D00000000E4200700040074AD36823F4E06314
:1026E0001B041B0C000200F4E060034343F0BF63D3
:1026F00043F40033D360704700ED00E000B5194BA0
:10270000DB68C3F30223C3F1070CBCF1040F28BF3D
:102710004FF0040C03F1040EBEF1060F18D9033B71
:102720004FF0FF3E0EFA0CFC21EA0C0199400EFA24
:1027300003F322EA0303194300280BDB0901C9B2A2
:1027400000F1604000F5614080F800135DF804FB83
:102750000023E5E700F00F000901C9B2024B19544C
:10276000F4E700BF00ED00E014ED00E00138B0F147
:10277000807F0BD24FF0E0235861054AF02182F8A8
:1027800023100020986107221A61704701207047CA
:1027900000ED00E010B504460E4B18784FF47A7344
:1027A000B3FBF0F30C4A1068B0FBF3F0FFF7DEFF69
:1027B00068B90F2C01D901200AE0002221464FF010
:1027C000FF30FFF79BFF054B1C60002000E001205D
:1027D00010BD00BF00000020080000200400002001
:1027E00008B50B4B1A6842F400721A601A6842F47A
:1027F00080621A601A6842F480721A600320FFF740
:102800006BFF0020FFF7C6FFFEF7A6FC002008BD07
:10281000003C0240034A1168034B1B780B441360D1
:10282000704700BF0C03002000000020014B186817
:10283000704700BF0C03002038B50446FFF7F6FFD1
:102840000546B4F1FF3F02D0044B1B781C44FFF750
:10285000EDFF401BA042FAD338BD00BF00000020AE
:1028600038B504460268136923F44053C1680B432A
:10287000136183680269134342691343C2691A43AF
:102880000168CB6823F4164323F00C031343CB6099
:102890000268536923F4407381690B4353610368F1
:1028A000314A934206D002F58062934202D0FFF78C
:1028B000E7FA01E0FFF7F4FAE369B3F5004F29D036
:1028C0000021031849411B1841F10001C90041EAE8
:1028D0005371DB00181863684FEA83024FEA937361
:1028E00041F10001FEF7B0F9204DA5FB003251097E
:1028F000642303FB11031B013233A5FB03235B0994
:1029000003F0F00202EB011203F00F0321681344FD
:102910008B6038BD0023021843EB0301121841F10C
:102920000001C90041EA5271D200101841F10001C2
:10293000626892185B41FEF787F90C4DA5FB0032E7
:102940005109642303FB1103DB003233A5FB03238E
:102950005B095A0002F4F87202EB011203F007035C
:10296000216813448B60D4E7001001401F85EB51B0
:102970002DE9F84305460F4616469946DDF82080B6
:102980002C68246837EA04030CBF4FF0010C4FF0A9
:10299000000CB4452DD1B8F1FF3FF1D0B8F1000FD4
:1029A00005D0FFF743FFA0EB09004045E8D92A68AE
:1029B00002F10C0353E8003F23F4D0730C3242E8D9
:1029C00000310029F3D12A6802F1140353E8003FD3
:1029D00023F00103143242E800310029F3D120230F
:1029E00085F83D3085F83E30002385F83C300320E3
:1029F00000E00020BDE8F88358B310B5044690F815
:102A00003D300BB3242384F83D302268D36823F48F
:102A10000053D3602046FFF723FF2268136923F495
:102A2000904313612268536923F02A03536122689B
:102A3000D36843F40053D36000202064202384F83B
:102A40003D3084F83E3010BD80F83C30FEF7DCFBB2
:102A5000D8E7012070472DE9F04182B01E4690F87A
:102A60003D30DBB2202B54D104460D469046002960
:102A700053D0002A53D090F83C30012B51D0012381
:102A800080F83C3000230364212380F83D30FFF7B9
:102A9000CDFE0746A4F82480A4F82680A368B3F5E9
:102AA000805F05D04FF00008002384F83C3012E02E
:102AB000236913B14FF00008F6E7A8460025F3E7B5
:102AC00038F8023B2268C3F308035360E28C92B2E9
:102AD000013A92B2E284E38C9BB273B100963B461A
:102AE000002280212046FFF743FFE0B9002DE7D008
:102AF00015F8012B23685A60E8E700963B46002250
:102B000040212046FFF734FF78B9202384F83D3078
:102B100000E0022002B0BDE8F0810120FAE70120C8
:102B2000F8E70220F6E70320F4E70320F2E70000CD
:102B3000034AD2F8883043F47003C2F888307047F3
:102B400000ED00E0DFF834D00D480E490E4A0023B6
:102B500002E0D458C4500433C4188C42F9D30B4A51
:102B60000B4C002301E013600432A242FBD3FFF7B9
:102B7000DFFF00F0F7FDFEF78BFA70470000022040
:102B800000000020D401002068600008D40100206B
:102B900060040020FEE72DE9F04F85B057EC106B84
:102BA000DDE90E9B002F0C4690461946B8BF324611
:102BB0003B462BF0200ABBBF07F100431F46002312
:102BC0002D23B8BF1646BAF1460F0B7005D0BAF1E7
:102BD000450F00D10134022100E0032103AB019332
:102BE00002AB009347EC106B4B46224600F06CFEA4
:102BF000BBF1670F054619D118F0010F0ED005EB98
:102C000004080022002330463946FDF75DFF08B175
:102C1000CDF80C803022039B434521D3039B109AAF
:102C20005B1B2846136005B0BDE8F08FBBF1470F72
:102C3000E2D0BAF1460F00EB0408E2D10378302B62
:102C40000AD10022002330463946FDF73DFF18B96E
:102C5000C4F10104C9F80040D9F800309844D0E725
:102C6000591C03911A70D6E7F7B50029BABF49423B
:102C70002D232B2309290270437029DD0DF1070351
:102C80001D460A271A46B1FBF7F607FB1614303427
:102C900002F8014C0C46632C03F1FF333146F1DCA2
:102CA0003031941E03F8011C411C2346AB420AD369
:102CB0000DF109039B1AAC4288BF00230233034481
:102CC000181A03B0F0BD13F8016B01F8016FEDE7BE
:102CD000302330318370C170031DF1E72DE9F04FCF
:102CE0008DB00C46DDF8588016461F46054600F0AC
:102CF000EFFC036804931846FDF7BAFA00230A9321
:102D0000D8F800300590073323F0070303F10802D9
:102D100094F818A0D4F800B0C8F80020D3E90089CE
:102D200029F000430793CDF81880C4E91289DDE942
:102D30000601A04B4FF0FF32FDF7F8FE70BBDDE956
:102D400006019C4B4FF0FF32FDF7D2FE30BB002254
:102D5000002340464946FDF7C1FE10B12D2384F8FB
:102D60004330954A954BBAF1470F94BF9046984629
:102D7000032323612BF0040323604FF00009009725
:102D800033460BAA2146284600F0DAF9013040F01C
:102D900096804FF0FF300DB0BDE8F08F42464B46B5
:102DA00040464946FDF7C2FE40B14B46002BBCBF32
:102DB0002D2384F84330824A824BD4E763685A1C3F
:102DC00026D1062363604BF48062002322600393C4
:102DD0000AABCDE901A309AB0093616849EC108B04
:102DE0000DF123032846FFF7D6FEBAF1670F0999C4
:102DF000804615D1CB1C3BDB6368994238DC0A9BCB
:102E0000994255DB23682161D80745D54B1C42E028
:102E10000AF0DF02472AD6D1002BD4D10123D1E713
:102E2000BAF1470F07D1C81C25DB63688B4222DB50
:102E30004FF0670AE3E7BAF1650F1FD80139524630
:102E400004F150000991FFF70FFF0A9A1318012AA5
:102E50008146236102DC2268D20701D50133236158
:102E60009DF82330002B8AD02D2384F8433086E749
:102E70004FF0650AE2E74FF0450ADFE7BAF1660F67
:102E8000BDD1002963680BDD216113B92268D00729
:102E900002D501330B442361A1654FF00009DFE740
:102EA00013B92268D20701D50233F4E70123F2E710
:102EB0000029D4BFC1F1020201221344EBE72368C9
:102EC0005A0507D42369424631462846B84701309F
:102ED0002BD15EE7BAF1650F40F2DC80D4E9120134
:102EE00000220023FDF7F0FD002833D0364A0123ED
:102EF00031462846B84701303FF44BAFDDE9093889
:102F0000434502DB2368D8070FD5DDE904233146AA
:102F10002846B84701303FF43CAF4FF0000908F1B4
:102F2000FF3804F11A0AC84509DC23689B0700F141
:102F30000281E0680B9B9842B8BF18462BE701233B
:102F4000524631462846B84701303FF422AF09F1D6
:102F50000109E8E7099B002B38DC1B4A01233146B5
:102F60002846B84701303FF414AFDDE9093959EA82
:102F7000030302D12368D907D7D5DDE904233146FD
:102F80002846B84701303FF404AF4FF0000A04F17F
:102F90001A0B099B5B42534501DC4B4693E7012327
:102FA0005A4631462846B84701303FF4F2AE0AF19E
:102FB000010AEEE7FFFFEF7FD85C0008DC5C000849
:102FC000E05C0008E45C0008E85C0008A36DDDF844
:102FD00028A05345A8BF5346002B994636DC4FF036
:102FE000000B29EAE97904F11A02A36D0693A3EB19
:102FF00009035B4531DC099B9A453ADC2368DA0713
:1030000037D4099BAAEB0309069BAAEB0303994556
:10301000A8BF9946B9F1000F33DC4FF0000829EA48
:10302000E97904F11A0B099BAAEB0303A3EB09034B
:1030300043457FF77AAF01235A4631462846B847C1
:1030400001303FF4A6AE08F10108ECE742463146F4
:103050002846B8470130C2D19BE6012331462846B5
:103060000692B84701303FF494AE069A0BF1010B7B
:10307000BBE7DDE9042331462846B8470130C0D11B
:1030800087E6069A4B46424431462846B847013007
:10309000C3D17EE6DDF828A0BAF1010F01DCDB0721
:1030A00036D50123424631462846B84701303FF421
:1030B00070AEDDE9042331462846B84701303FF4BD
:1030C00068AED4E91201002200230AF1FF3AFDF7AD
:1030D000FBFCC0B9534608F1010231462846B84707
:1030E00001300CD155E601235A4631462846B847EF
:1030F00001303FF44EAE08F10108D045F3DB4B46FA
:1031000004F15002E0E64FF0000804F11A0BF4E776
:1031100001234246E1E701234A4631462846B847A3
:1031200001303FF436AE08F10108E3680B995B1AF1
:103130004345F0DCFDE64FF0000804F11909F4E71F
:103140002DE9F047164698468A680B69DDF820900D
:103150009342B8BF1346336091F8432007460C46AC
:103160000AB1013333602368990642BF33680233E2
:103170003360256815F0060506D104F1190AE368E5
:1031800032689B1AAB4226DC94F843302268003B3D
:1031900018BF012392062BD404F14302414638465E
:1031A000C84701301ED02368226903F00603042BB0
:1031B00002BFE5683368ED1AA3680CBF25EAE57520
:1031C00000259342C4BF9B1AED1800261A34B5425D
:1031D0001AD1002008E00123524641463846C8472C
:1031E000013003D14FF0FF30BDE8F0870135C6E76D
:1031F000E1185A1C302081F84300224494F845100D
:1032000082F843100233C7E701232246414638467D
:10321000C8470130E6D00136D9E700002DE9FF4765
:103220000F7E0C9E782F914680460C469A4601F1FF
:10323000430207D8622F0AD8002F00F0DD80582FF4
:1032400000F0C38004F1420684F842703AE0A7F12E
:103250006303152BF6D801A151F823F0B53200080D
:10326000C9320008453200084532000845320008DE
:1032700045320008C93200084532000845320008CE
:103280004532000845320008DF3300085733000894
:103290009733000845320008453200080134000821
:1032A000453200085733000845320008453200080F
:1032B0009F33000833681A1D1B68326004F1420610
:1032C00084F842300123A8E031682368081D30608B
:1032D0001E0601D50D6803E05D06FBD5B1F900506F
:1032E0006168002D78DA2D20002984F84300A16060
:1032F0002DDA5E486D420A231646B5FBF3F103FB57
:103300001157C75D06F8017D2F46BB420D46F4D923
:10331000082B0BD12368DF0708D523696168994220
:10332000DEBF302306F8013C06F1FF36921B226116
:10333000CDF800A04B4603AA21464046FFF700FF08
:1033400001306FD14FF0FF3004B0BDE8F08723F0BB
:1033500004032360CDE721683368080653F8045B53
:1033600002D4490648BFADB26F2F4048336014BF46
:103370000A230823002184F843106668A660002E03
:10338000BADB216821F004012160002DB4D1002EA8
:10339000B2D11646BCE7236843F0200323603448CB
:1033A000782784F84570236831681F0651F8045B5C
:1033B00002D45F0648BFADB23160D90744BF43F0C5
:1033C000200323601DB11023D4E72848E9E72368D0
:1033D00023F020032360F6E724480A23CDE733686F
:1033E00025686169181D30602E061B6801D51960BB
:1033F00002E06806FBD5198000232361164697E793
:1034000033681A1D32601E68626800213046FCF77E
:10341000DFFE08B1801B606063682361002384F8CD
:10342000433085E72369324649464046D04701305C
:1034300088D023689B0714D4E068039B9842B8BFE8
:10344000184681E70123324649464046D0470130BD
:103450003FF478AF0135E36803995B1AAB42F1DCC6
:10346000EAE7002504F11906F5E700BFEA5C000869
:10347000FB5C0008002310B50446C0E90033C0E936
:103480000433836081814366C281836119460822C7
:103490005C3000F014F90D4B63620D4BA3620D4BD1
:1034A000E3620D4B23630D4B24629C4206D003F173
:1034B0006802944202D0D0339C4205D104F15800F6
:1034C000BDE8104000F072B910BD00BF39360008E9
:1034D0005B36000893360008B7360008100300205A
:1034E000024A0349034800F069B800BF0C000020FD
:1034F000E55100081C00002041680C4B994210B5B2
:10350000044601D001F06EFEA168094B994202D039
:10351000204601F067FEE168064B994204D0204640
:10352000BDE8104001F05EBE10BD00BF10030020DA
:1035300078030020E003002010B50B4B0B4C0C4A25
:103540001A60204600220421FFF794FF04F168006E
:1035500001220921FFF78EFF04F1D0000222BDE80D
:1035600010401221FFF786BF4804002010030020FE
:10357000E1340008014800F01AB900BF51040020EE
:10358000014800F015B900BF5104002010B50446F1
:10359000FFF7F0FF236A1BB1BDE81040FFF7F0BF53
:1035A000044B2362044B1B68002BF5D1FFF7C4FFCB
:1035B000F2E700BFF9340008480400202DE9F84381
:1035C0000746884614460026D4E90195B9F1010959
:1035D00005D52468002CF7D13046BDE8F883AB89C7
:1035E000012B07D9B5F90E30013303D029463846EF
:1035F000C04706436835E9E70EB400B59CB01DAB83
:10360000029006906FF00041094807910491094922
:1036100053F8042B05910068019302A901F062FCA4
:10362000029B00221A701CB05DF804EB03B07047D7
:10363000180000200802FFFF10B50C46B1F90E106B
:1036400000F06CF80028ABBF636DA3891B1823F44E
:103650008053ACBF6365A38110BD2DE9F0411F46C7
:103660008B89DB0505460C46164605D5B1F90E10CB
:103670000223002200F040F8A389B4F90E1023F4CD
:103680008053A38132463B462846BDE8F04100F016
:1036900057B810B50C46B1F90E1000F02DF8431CC8
:1036A000A38915BF606523F4805343F48053A3813D
:1036B00018BFA38110BDB1F90E1000F00DB802447F
:1036C0000346934200D1704703F8011BF9E700005D
:1036D000004870475801002038B5064D00230446C5
:1036E00008462B6002F01CF9431C02D12B6803B181
:1036F000236038BD4C04002038B5074D0446084609
:10370000114600222A601A4602F032F9431C02D107
:103710002B6803B1236038BD4C04002038B5074D39
:1037200004460846114600222A601A4602F028F98B
:10373000431C02D12B6803B1236038BD4C04002028
:1037400038B5074D04460846114600222A601A463D
:1037500002F02CF9431C02D12B6803B1236038BD61
:103760004C04002070B50D4D0D4C641BA4100026B8
:10377000A64209D10B4D0C4C02F080FA641BA41038
:103780000026A64205D170BD55F8043B9847013686
:10379000EEE755F8043B98470136F2E76060000811
:1037A000606000086060000864600008704770474F
:1037B00070472DE9F74F03690C69A34207467EDB8A
:1037C000013C01F11408A30000F11405009305EB7E
:1037D0008403019358F8243055F8242001339A4289
:1037E00008EB8409B2FBF3F62ED34FF0000AC4466F
:1037F000AE46D3465CF8043B98B206FB00A0020C30
:103800001B0C06FB0323DEF8002080B292B2121AD2
:103810005A44DEF800004FEA134A9BB2C3EB22433E
:1038200003EB104392B242EA0342E1454EF8042B07
:103830004FEA234BDED2009BEB582BB9019B043B94
:103840009D421A462FD33C61384601F0E7F9002823
:1038500025DB2946002058F8042BD1F800C01FFAB8
:1038600082FE1FFA8CF3A3EB0E030344120CC2EB8F
:10387000234202EB1C429BB243EA0243C14541F89A
:10388000043B4FEA2240E6D255F8242005EB84039E
:1038900022B9043B9D421A460BD33C6101363046A7
:1038A00003B0BDE8F08F1268043B002ACBD1013C85
:1038B000C6E71268043B002AEFD1013CEAE700208A
:1038C000EEE70000000000002DE9F04FC76997B057
:1038D0008DED000B55EC104B209E089183460C9209
:1038E00012937FB9102000F065FE0246CBF81C0051
:1038F00020B9A74BEF21A74801F0D4FCC0E901771C
:103900000760C760DBF81C30196859B15A684A6013
:10391000012393408B60584600F042FFDBF81C30D7
:1039200000221A602B1EB9BF23F00043019300232D
:103930003360019F984BBCBF01223260BB4319D159
:10394000129A42F20F731360C7F31303234300F07C
:10395000DD85219B53B9914B21E0914B03930833B3
:10396000219A1360039817B0BDE8F08F8B4B039337
:103970000333F5E79DED007B002251EC170B00238C
:103980008DED0A7BFDF7A0F8804650B1129A012315
:103990001360219B13B1219A824B1360824B0393D6
:1039A000E0E79DED0A0B14AA15A9584601F0E6F9C7
:1039B000C7F30A560290002E78D00B9BCDF84C80AE
:1039C000C3F31303DDE90A0143F07F5343F44013CB
:1039D000A6F2FF3619460022744BFCF755FC66A38D
:1039E000D3E90023FCF708FE65A3D3E90023FCF725
:1039F0004DFC044630460D46FCF794FD62A3D3E926
:103A00000023FCF7F9FD02460B4620462946FCF749
:103A10003DFC04460D46FDF79FF8002207460023B3
:103A200020462946FDF75AF840B13846FCF77AFDA2
:103A300022462B46FDF748F800B9013F162F52D811
:103A40005B4B03EBC703D3E90023DDE90A01FDF774
:103A500045F8002849D0013F00231193149B9B1B7C
:103A60005A1E45BFC3F101030693002300230792AA
:103A700054BF06930793002F39DB079B10973B44F5
:103A8000079300230993089B092B66D8052BC4BF15
:103A9000043B0893089BA3F10203CCBF002401243C
:103AA000032B65D8DFE803F02B383657DDE91463C4
:103AB0001E4406F23243202BC1BFC3F140039F4096
:103AC00006F2124324FA03F3D6BFC3F1200347EAF8
:103AD000030004FA03F0FCF715FD0122A1F1F873CD
:103AE000013E139276E70123B7E71190B6E7069BF4
:103AF000DB1B06937B42099300231093C3E700234B
:103B00000D930C9B002B57DC0123049399461A4616
:103B10000C920CE00123F3E700230D930C9BFB18A0
:103B200003F1010904934B46012BB8BF0123DBF8D5
:103B30001C000021042202F114059D4240D941607D
:103B4000584600F0EDFD039000283CD1194B024689
:103B500040F2AF11CFE60123DFE7012400230893F1
:103B60000D944FF0FF330493994600221223CFE7C0
:103B700001230D93F5E700BF61436F63A787D23F31
:103B8000B3C8608B288AC63FFB799F501344D33F4C
:103B9000195D0008305D00080000F07F155D000829
:103BA0000C5D0008E95C0008E85C00080000F83FD4
:103BB000385E0008915D00080C9B04939946B6E7B7
:103BC00001315200B7E7DBF81C30039A1A60B9F1F3
:103BD0000E0F6FD8002C6DD0002F36DDA14B07F0F3
:103BE0000F0203EBC20393ED007BF8058DED0E7B16
:103BF0004FEA271417D59C4BDDE90A01D3E90823C6
:103C0000FCF724FECDE9000104F00F044FF0030897
:103C1000954D5CB9DDE90E23DDE90001FCF716FEE8
:103C2000CDE900012BE04FF00208F1E7E10709D5EB
:103C3000DDE90E01D5E90023FCF7DEFCCDE90E013C
:103C400008F1010864100835E3E700F007817C42C1
:103C5000844B854D04F00F0203EBC203D3E900232C
:103C6000DDE90A01FCF7C8FCCDE9000124110023BD
:103C70004FF00208002C40F0E580002BD0D1119BC2
:103C8000DDE90045002B00F04C81784B00222046F6
:103C90002946FCF723FF002800F04381B9F1000F0B
:103CA00000F03F81049B002B00F3E480DDE90A343F
:103CB000CDE90034159B002B02DB0E2F40F342822E
:103CC0000D9A002A40F06782099CDDF818800025D3
:103CD000B8F1000F0DD0079B002B0ADD4345069A73
:103CE000A8BF4346D21A0692079AA8EB0308D31A34
:103CF0000793099B0BB30D9B002B00F0A682002CB1
:103D000000F0A18229462246584600F0C1FE029AE0
:103D100001460546584600F011FE029906465846EF
:103D200000F03EFD099B1B1B099300F09182099A4C
:103D30003146584600F0ACFE02900121584600F092
:103D4000E7FD109B0446002B00F084821A460146D2
:103D5000584600F09DFE089B012B044603DC009BA7
:103D6000002B00F07C820026236904EB8303186992
:103D700000F07EFD1096C0F12000079B184410F063
:103D80001F0000F09182C0F12003042B40F38182D8
:103D9000069BC0F11C0003440693079B0344804428
:103DA0000793069B002B05DD02991A46584600F042
:103DB000C9FE0290079B002B05DD21461A46584696
:103DC00000F0C0FE0446119B002B00F076820298A2
:103DD000214600F023FF002880F26F820023029921
:103DE0000A22584600F0FEFC0D9B02907E1E002B1E
:103DF00000F05C82002329460A22584600F0F2FCBB
:103E0000049B002B054603DC089B022B00F35E821B
:103E1000B8F1000F05DD29464246584600F092FEF3
:103E20000546109B002B00F0D0826968584600F0D0
:103E300077FC0746002840F07F820D4B024640F297
:103E4000EF2158E5E20706D5D5E90023FCF7D4FBBE
:103E500008F101080123641008350BE74FF0020850
:103E60000DE700BF385E0008105E00080000F03F5C
:103E7000915D00082046AD4B00222946FCF7BCFBB3
:103E8000CDE90001049C7E1E08F101084046FCF7C4
:103E900049FBDDE90023FCF7AFFBA54B0022FCF753
:103EA000F5F9A1F15073CDE90E010F93002C3BD130
:103EB000DDE900019F4B0022FCF7E6F902460B46C4
:103EC000CDE90023DDE90E23FCF726FE002840F0B3
:103ED0005781DDE90E2101F10043DDE90001FCF726
:103EE000FDFD00283FF4E2AE002425460C9BDDF8E2
:103EF0000CA0DE434FF000082146584600F050FC6D
:103F0000002D00F0A980B8F1000F05D0A84503D01E
:103F10004146584600F044FC2946584600F040FC13
:103F20009AE03E464C46B1E7834B03EBC40353E9AA
:103F30000201039B1C440D9B002B4AD002460B46FA
:103F400000207E49FCF782FCDDE90E23FCF79CF99A
:103F5000CDE90E01DDF80CA0DDE90001FCF7FCFD68
:103F60000546FCF7DFFA02460B46DDE90001FCF7E7
:103F70008BF93035CDE9000102460B460AF8015BAA
:103F8000DDE90E01FCF7C8FD002865D1DDE900235D
:103F90006B490020FCF778F902460B46DDE90E017B
:103FA000FCF7BAFD002840F00D81A24500F0EA8040
:103FB000DDE90E015D4B0022FCF71EFB5B4BCDE9FA
:103FC0000E010022DDE90001FCF716FBCDE900013E
:103FD000C2E7DDE90E23FCF70FFBCDE90E01DDF8AA
:103FE0000CA0A046DDE90001FCF7B6FD0546FCF794
:103FF00099FA02460B46DDE90001FCF745F9303538
:104000000AF8015B02460B46A245CDE900234FF0BA
:10401000000223D1494BDDE90E01FCF737F90246D6
:104020000B46DDE90001FCF777FD002840F0CA806F
:10403000DDE90E2341490020FCF726F902460B4634
:10404000DDE90001FCF74AFD70B1C24608F1FF3816
:104050001AF8013C302BF8D0374655E0334BFCF7CB
:10406000CBFACDE90001BDE7DDE90A34CDE9003442
:10407000159B002BFFF628AE0E2F3FF725AE2E4BDB
:1040800003EBC70393ED007B0C9B002B8DED047BB2
:1040900002DAB9F1000F64D0DDE90045DDF80CA0CB
:1040A000DDE9042320462946FCF7D0FBFCF754FD4C
:1040B0000646FCF737FADDE90423FCF79DFA0246D1
:1040C0000B462046294606F13004FCF7DDF80AF8D5
:1040D000014B039CAAEB0404A14502460B4640F0A9
:1040E0008280FCF7D3F8DDE9042304460D46FCF793
:1040F00013FD002865D1DDE9042320462946FCF79D
:10410000E3FC08B1F3075CD40299584600F048FB81
:1041100000238AF80030129B01371F60219B002B7F
:104120003FF420ACC3F800A01CE400BF0000244012
:1041300000001C4000001440385E00080000E03F12
:104140000000F03FA24B03EBC70393ED007B0C9BF9
:10415000002B8DED047B9FDAB9F1000F9CDC7FF41E
:10416000C3AE9C4B0022DDE90401FCF745FADDE912
:104170000023FCF7C7FC044600287FF4B5AE3E469A
:104180002546B4E0DDE90A34CDE90034159B002B67
:1041900001DB0E2FD6DD089A012A36DC139A82B392
:1041A00003F23343099CDDF81880069A1A440692FC
:1041B000079A01211A445846079200F0A9FB0546C8
:1041C00086E53E4653469A4613F8012D392A06D114
:1041D000039A9A42F7D10399302201360A701A786D
:1041E00001321A7038E77C4B0022FCF705FA0022F6
:1041F000002304460D46FCF767FC00283FF450AF4F
:1042000082E7149BC3F13603CCE7099B09F1FF3425
:10421000A34208DBB9F1000FA3EB04040EDBDDF8C9
:1042200018804B46C1E7099B109A0994E31A1A4477
:10423000DDF8188010924B460024B6E7069BA3EBEE
:1042400009080023B1E7029E71E5099A029970E519
:10425000029672E5089B012B17DC009BABB9019B12
:10426000C3F313039BB9019B23F00046360D3605BB
:1042700036B1069B01330693079B01330793012652
:10428000109B002B7FF470AD1096012075E5002681
:10429000F6E73FF486AD069A1C331A440692079A55
:1042A0001A44984407927CE50346F4E7049B002BEC
:1042B0002BDC089B022B09DC27E0B9F1000F1DDC89
:1042C000089B022B1ADDCDF810903E46049B002B74
:1042D0007FF40CAE21460522584600F083FA0146D1
:1042E0000446029800F09AFC00287FF7FFADDDF845
:1042F0000CA031230AF8013B0136FBE50D9BCDF8FC
:1043000010903E46002B7FF483AD039F0298214618
:10431000FFF74FFA00F1300907F8019B039B049A5D
:10432000FB1A9A4240F3CB80029900230A22584696
:1043300000F058FA0290E9E72A690232920005F18A
:104340000C010C3000F0A0FF01223946584600F065
:10435000F9FB039B03F1010ADDE9032313440793EF
:10436000009B03F00103A846099305460AF1FF33B9
:10437000214602980493FFF71CFA4146069000F18B
:104380003009029800F04AFC2A4621460746584662
:1043900000F060FCC268014602B3584600F000FA23
:1043A000002F3ADA02990122584600F0CBFB214651
:1043B000029000F033FC002803DC29D119F0010F32
:1043C00026D0B9F1390F1DD132E02846C1E700BF30
:1043D000385E000800001440000024400A90029853
:1043E00000F01CFC0A990C90584600F0D9F90C9A80
:1043F0005ABB089B53B9099B43B9B9F1390F17D080
:10440000002F05DD069B03F1310901E0002F2ADAB8
:10441000DDF810A00AF8019B6EE5089B3B4304D130
:10442000009B03F00103002BBCD0B9F1390F36D14A
:10443000049F392307F8013BBA46013F1AF8013CB3
:10444000392B5BD001333B7056E5002F06DB089B10
:104450003B4306D1009B03F0010313B9002AA1DC02
:10446000D6E7002AE1DC079B0AF8019C5345574632
:104470002FD0029900230A22584600F0B3F9A8452C
:1044800002904FF000034FF00A02414658460BD10C
:1044900000F0A8F9804605460AF1010A66E7DDF852
:1044A00010A009F10109B5E700F09CF92946804602
:1044B00000230A22584600F095F90546ECE7049BD4
:1044C000002BC8BF1F46039BD8BF01271F444FF0D6
:1044D000000802990122584600F034FB2146029060
:1044E00000F09CFB0028A7DC02D119F0010FA3D13A
:1044F000BA4617F8013D302BFAD0FDE4039BBB42CE
:104500009AD1039A312301361370F5E4219B002BD5
:104510007FF423AA014BFFF742BA00BF0C5D0008ED
:1045200038B50546002941D051F8043C0C1F002B3A
:10453000B8BFE41800F0E8F81D4A136833B96360A7
:1045400014602846BDE8384000F0E4B8A34208D91A
:10455000206821188B4201BF19685B680918216027
:10456000EDE71A465B680BB1A342FAD911685018FF
:10457000A0420BD120680144501883421160E0D161
:1045800018685B68536008441060DAE702D90C23AE
:104590002B60D6E7206821188B4204BF19685B683E
:1045A000636004BF091821605460CAE738BD00BFCA
:1045B00058040020024B0146186800F025B800BFDF
:1045C0001800002070B50F4E0C463168054611B931
:1045D00000F04AFE30602146284600F045FE431CAC
:1045E00003D14FF0FF34204670BDC41C24F00304F7
:1045F000A042F8D0211A284600F036FE0130F2D150
:10460000EFE700BF540400202DE9F843CD1C25F04E
:10461000030508350C2D38BF0C25002D064601DB9F
:10462000A94204D90C2333600020BDE8F883DFF8E9
:10463000D48000F069F8D8F800301C4644BB294605
:104640003046FFF7BFFF431C044658D1D8F800405E
:104650002746002F43D1002C4BD0236839463046E3
:1046600004EB030900F000FE814542D121686D1A78
:1046700029463046FFF7A6FF01303AD023682B4485
:104680002360D8F800305A6862BBC8F800700FE0A9
:104690002268521B20D40B2A17D96119A342256026
:1046A00018BF5960636808BFC8F8001062514B60BA
:1046B000304600F02FF804F10B00231D20F0070016
:1046C000C21A1CBF1B1AA350AFE76268A3420CBFFB
:1046D000C8F800205A60EBE723466468AEE73C4622
:1046E0007F68B6E71A465B68A342FBD1002353609C
:1046F000DEE70C233360304600F00CF894E70560E9
:10470000D6E700BF580400200148FFF750B800BFAB
:10471000500400200148FFF74BB800BF50040020B0
:1047200070B5C66904460D4676B91020FFF742FF02
:104730000246E06120B9184B18486B2100F0B2FD29
:10474000C0E901660660C660E669F36883B1E369A3
:10475000DB6853F82500B8B9012101FA05F6721D8E
:104760009200204600F0BCFD60B1C0E901560EE0A9
:1047700021220421204600F0B3FDE369F060DB68EC
:10478000002BE4D1002070BD026843F825200023EF
:10479000C0E90333F7E700BF195D0008A25D000818
:1047A00070B5C66905460C4676B91020FFF702FFC2
:1047B0000246E86120B9094B09488F2100F072FDDB
:1047C000C0E901660660C6603CB1EB696268DB68FF
:1047D00053F82210216043F8224070BD195D000893
:1047E000A25D00082DE9F0410D6907460C461E4602
:1047F00001F1140C0020DCF8003099B202FB0161D9
:104800001E0C0B0C02FB063389B2013001EB034195
:1048100085424CF8041B4FEA1346ECDC0EB3A36848
:10482000AB4219DC616838460131FFF779FF8046F9
:1048300028B902460C4B0D48BA2100F033FD22691D
:10484000023204F10C0192000C3000F01DFD2146F3
:104850003846FFF7A5FF444604EB850301355E614A
:1048600025612046BDE8F081915D0008A25D000849
:10487000B0F5803F034636BF030400201020B3F19B
:10488000807F3CBF1B020830B3F1805F3CBF1B013F
:104890000430B3F1804F03D3002B0ADB01307047A3
:1048A0009B0001D5023070475B0001D50330704793
:1048B000202070470368024613F007000BD0D90789
:1048C00021D4980749BF5B089B08012013605CBF97
:1048D00013600220704799B209B91B0C1020D9B29D
:1048E00009B908301B0A190704BF1B0904309907CE
:1048F00004BF9B080230D90703D45B0800F1010014
:1049000003D01360704700207047202070470000DC
:1049100010B50C460121FFF703FF024628B9054BED
:10492000054840F2451100F0BDFC012344610361DC
:1049300010BD00BF915D0008A25D00082DE9F04F99
:1049400014460A6923699A42A8BF23460F46A4BFAA
:104950000C461F46D4F810A0D7F81090A3686168E1
:104960000AEB0906B34285B0B8BF0131FFF7D8FEA4
:1049700030B90246444B45484FF4B17100F092FC07
:1049800000F1140505EB86082B460022434521D390
:1049900007F1140104F1140202EB8A0201EB89030E
:1049A0000293131B153B23F00303043304F1150793
:1049B000BA4238BF04230193029B03918B420CD867
:1049C000002E03DD58F8043D002B5BD0066105B0D6
:1049D000BDE8F08F43F8042BD8E7B1F800A0BAF196
:1049E000000F24D004F1140EA9464FF0000C5EF81D
:1049F000047BD9F800301FFA87FB9BB20AFB0B330C
:104A00004FEA174BD9F8007063444FEA174C0AFB82
:104A10000BC707EB13479BB243EA0743724549F8BC
:104A2000043B4FEA174CE2D8019B45F803C0039BB7
:104A3000B3F802900431B9F1000F21D02B6804F1D2
:104A4000140CAE464FF0000ABCF800B0BEF802707D
:104A500009FB0B7757449BB243EA07434EF8043BEC
:104A60005CF8043B4FEA134ABEF8003009FB0A33F6
:104A700003EB174362454FEA134AE5D8019FEB5118
:104A8000043599E7013E9BE7915D0008A25D0008AF
:104A90002DE9F843154612F0030207460E4607D0EB
:104AA000254C013A002354F82220FFF79BFE0646CE
:104AB000AD103DD0FC697CB91020FFF77BFD0246AC
:104AC000F86128B91D4B1E4840F2B31100F0EAFB13
:104AD000C0E901440460C460D7F81C80D8F80840DD
:104AE0004CB940F271213846FFF712FF0023C8F895
:104AF0000800044603604FF00009EB070AD5314671
:104B000022463846FFF71AFF314680463846FFF7FF
:104B100047FE46466D100BD0206838B92246214624
:104B20003846FFF70BFF2060C0F800900446E4E72A
:104B30003046BDE8F88300BF045E0008195D000838
:104B4000A25D00082DE9F0470C464968236903EB94
:104B50006218A368074691464FEA621A08F10106F7
:104B6000B3420BDB3846FFF7DBFD054648B902468A
:104B7000284B29484FF4EF7100F094FB01315B00A2
:104B8000EEE7002300F1140100F11002184653452E
:104B900033DB20692AEAEA7A04F1140319F01F09C9
:104BA00001EB8A0103EB800C2BD0C9F1200E8A4661
:104BB0000022186800FA09F010434AF8040B53F871
:104BC000042B9C4522FA0EF2F3D8ACEB0403153B00
:104BD00023F00303043304F11500844538BF042394
:104BE000CA500AB108F10206013E38462E6121463C
:104BF000FFF7D6FD2846BDE8F08742F8040F0133E1
:104C0000C5E7043953F8042B41F8042F9C45F9D823
:104C1000EAE700BF915D0008A25D00080A6903464B
:104C20000069801A30B50ED11433143103EB8204BD
:104C300001EB820154F8045D51F8042D954203D034
:104C400005D24FF0FF3030BDA342F3D3FBE7012084
:104C5000F9E700002DE9F74F894606461146484618
:104C60001446FFF7DBFF051E12D129463046FFF739
:104C700057FD024628B93F4B40F237213E4800F02D
:104C800011FB0123C0E90435104603B0BDE8F08FE5
:104C9000BCBF4B46A1463046D9F80410BABF1C46EB
:104CA00001250025FFF73CFD024618B9314B40F2C3
:104CB0004521E3E7D9F810702669C56009F11003B2
:104CC00009F1140504F1140E00F1140B05EB87082B
:104CD0000EEB86060193D9464FF0000C019B5EF85F
:104CE000040B53F804AF01931FFA8AF3194683B2F9
:104CF000CB1A000C6344C0EB1A4000EB23409BB27C
:104D000043EA0043764549F8043B4FEA204CE5D896
:104D1000331B153B23F0030315340433A64238BF7D
:104D200004231D445B441E462C4644450ED308F123
:104D30000301491B21F00301033DA84538BF0021B1
:104D40000B4453F8041D91B117619DE754F8041BFF
:104D5000E646080C1CFA81FC714400EB2C4089B239
:104D600041EA004146F8041B4FEA204CDDE7013FD1
:104D7000E7E700BF915D0008A25D00082DE9F74359
:104D80000F46012159EC108B1646FFF7C9FC04466B
:104D900030B90246234B244840F20F3100F082FA2A
:104DA000C9F30A55C9F313030DB143F480130193FA
:104DB000B8F1000323D068460093FFF77BFDDDE9DF
:104DC0000012D0B1C0F1200302FA03F30B43C2403A
:104DD00063610192019BA361002B0CBF012202229F
:104DE0002261A5B1A5F2334505443D60C0F135000F
:104DF0003060204603B0BDE8F0836161EAE701A8B6
:104E0000FFF758FD019B636120300122E8E704EBC6
:104E10008203A0F2324038601869FFF729FDC0EB29
:104E20004210E5E7915D0008A25D00082DE9F0471A
:104E30008E681F46BE420B6882460C4690462DD8AF
:104E4000B1F90C2012F4906F26D06569096905EB61
:104E50004505A3EB010905EBD5757B1C4B446D1093
:104E60009D4238BF1D46530527D52946FFF7CCFB89
:104E7000064660B321694A4600F006FAA38923F486
:104E8000906343F08003A381266165614E44A5EBE6
:104E900009052660A5603E46BE4200D93E46206810
:104EA0003246414600F0C6F9A3689B1BA360236805
:104EB000334423600020BDE8F0872A4600F036FA2C
:104EC00006460028E0D121695046FFF729FB0C2354
:104ED000CAF80030A38943F04003A3814FF0FF30AC
:104EE000E9E700002DE9F04F98468B891B069DB03D
:104EF00007460D46144610D50B6973B94021FFF7DC
:104F000083FB2860286130B90C233B604FF0FF30F1
:104F10001DB0BDE8F08F40236B610023099320236F
:104F20008DF82930CDF80C803023DFF89C818DF886
:104F30002A304FF0010923469A4613F8012B0AB193
:104F4000252AF9D1BAEB040B0BD05B462246294641
:104F50003846FFF76BFF013000F0A780099A5A44EA
:104F600009929AF80030002B00F09F8000234FF048
:104F7000FF32CDE905230AF1010A049307938DF866
:104F800053301A935446052214F8011B4E48FBF780
:104F90001FF9049AD8B9D00644BF20238DF85330A6
:104FA000110744BF2B238DF853309AF800302A2B79
:104FB00015D0079A544600204FF00A0C214611F8EC
:104FC000013B303B092B4BD9B0B1079214E0A0EB69
:104FD000080309FA03F313430493A246D2E7039BA1
:104FE000191D1B680391002BBBBF5B4242F00202FC
:104FF00007930793B8BF049223782E2B0AD16378C6
:105000002A2B32D1039B1A1D1B68039243EAE373D8
:1050100002340593DFF8C0A0217803225046FBF745
:10502000D7F838B1049BA0EB0A004022824013431A
:105030000134049314F8011B24488DF8281006222B
:10504000FBF7C6F8002836D0214B1BBB039B073368
:1050500023F0070308330393099B334409936AE75A
:105060000CFB02320C460120A8E700230134059313
:1050700019464FF00A0C204610F8012B303A092A45
:1050800003D9002BC6D00591C4E70CFB01210446CF
:105090000123F0E703AB00932A460E4B04A93846E0
:1050A000FDF71CFE421C0646D6D1AB895B063FF5D8
:1050B0002DAF09982CE703AB00932A46054B04A9B2
:1050C0003846FEF7ABF8EDE7005F00080A5F00081E
:1050D000DD2C00082D4E0008065F0008B1F90C20F9
:1050E0002DE9F041170705460C4656D44B68002BB6
:1050F00002DC0B6C002B3DDDE66A002E3AD000236B
:1051000012F480522F68216A2B6025D0626DA3892A
:10511000580705D56368D21A636B0BB1236CD21A9A
:10512000216AE66A00232846B047411C24D00023A8
:10513000636023692360A389DA0400D56065616B2D
:105140002F60B9B104F14403994202D02846FFF719
:10515000E7F9002363630DE001232846B047461CAE
:105160000246D4D12B68002BD1D01D2B01D0162B99
:105170002BD12F6000202FE02A68B4F90C3042B107
:105180001D2A01D0162A22D10023636023692360DF
:10519000D5E7626022692260CEE70F69002FE9D06F
:1051A00093070E6808BF4B690F6018BF0023A6EB7A
:1051B00007088B60B8F1000FDCDD216AA66A434660
:1051C0003A462846B047002808DCB4F90C3043F0D2
:1051D0004003A3814FF0FF30BDE8F0810744A8EB06
:1051E0000008E7E738B50B6905460C4613B90025FA
:1051F000284638BD18B1036A0BB9FEF7C7F9B4F9F0
:105200000C30002BF3D0626ED00704D4990502D481
:10521000A06DFEF7CCFA28462146FFF75FFF636ECC
:10522000DA070546E4D4A3899B05E1D4A06DFEF717
:10523000BFFADDE7884210B501EB020402D98442CF
:10524000234607D8431EA14208D011F8012B03F8CA
:10525000012FF8E7024401468A4200D110BD13F83D
:10526000014D02F8014DF7E738B5064D002304461D
:1052700008462B6000F08CFB431C02D12B6803B165
:10528000236038BD4C0400200A44914200F1FF33F2
:1052900000D1704710B511F8014B03F8014F91424E
:1052A000F9D110BD1FB514461A46094B1B680546B7
:1052B000D86854B9074B1C46CDE9013400912B4600
:1052C000054900F06FF800F07FF8044BF4E700BFE9
:1052D00018000020565F0008285F00081B5F0008C8
:1052E00070B5A1FB02543CB92946FFF78DF906467B
:1052F00028B90026304670BD0C220260F9E72A4624
:105300002146FEF7DCF9F5E782B001B901A942B107
:105310004BB113780B601278101E18BF012002B039
:1053200070471046FBE76FF00100F8E72DE9F04108
:10533000804615460C4621B9BDE8F0411146FFF7FD
:1053400063B92AB9FFF7ECF800242046BDE8F081E4
:1053500000F041F88542064602D8B5EB500FF4D86C
:1053600029464046FFF750F907460028ECD0B542E1
:105370002A46214628BF3246FFF786FF214640468F
:10538000FFF7CEF83C46E0E70346084641B1FF2A66
:1053900004D98A221A604FF0FF3070470A7001204A
:1053A000704700000EB403B5014603AB054853F83F
:1053B000042B0068019300F03FF802B05DF804EBA5
:1053C00003B070471800002008B5062000F008FA66
:1053D000012000F0F3FA51F8043C181F002BBCBF69
:1053E0000B58C01870479368013B002B10B49360B2
:1053F00008DA9469A34201DB0A2903D15DF8044B62
:1054000000F032B91368581C1060197008465DF836
:10541000044B7047F8B506460F461446D518AC4203
:1054200001D1002007E014F8011B3A463046FFF78F
:10543000DAFF431CF3D1F8BD2DE9F04F0D469DB0C6
:1054400014469846064618B1036A0BB9FEF79EF853
:105450006B6ED90705D4AB899A0502D4A86DFEF707
:10546000A6F9AB891B0701D52B699BB929463046A4
:1054700000F038F970B16B6EDC0704D54FF0FF30E7
:105480001DB0BDE8F08FAB899805F7D4A86DFEF785
:105490008FF9F3E70023099320238DF82930CDF805
:1054A0000C803023DFF8AC818DF82A304FF00109F1
:1054B00023469A4613F8012B0AB1252AF9D1BAEBF3
:1054C000040B0BD05B46224629463046FFF7A2FF6D
:1054D000013000F0A780099A5A4409929AF80030E6
:1054E000002B00F09F8000234FF0FF32CDE9052311
:1054F0000AF1010A049307938DF853301A93544626
:10550000052214F8011B5348FAF762FE049AD8B931
:10551000D10644BF20238DF85330130744BF2B23FB
:105520008DF853309AF800302A2B15D0079A54463C
:1055300000204FF00A0C214611F8013B303B092BAB
:105540004BD9B0B1079214E0A0EB080309FA03F3BA
:1055500013430493A246D2E7039B191D1B680391D2
:10556000002BBBBF5B4242F0020207930793B8BF18
:10557000049223782E2B0AD163782A2B32D1039BF5
:105580001A1D1B68039243EAE37302340593DFF8A4
:10559000D4A0217803225046FAF71AFE38B1049BB2
:1055A000A0EB0A004022824013430134049314F814
:1055B000011B29488DF828100622FAF709FE002859
:1055C0003FD0264B1BBB039B073323F00703083355
:1055D0000393099B3B4409936AE70CFB02320C4698
:1055E0000120A8E700230134059319464FF00A0C67
:1055F000204610F8012B303A092A03D9002BC6D0D7
:105600000591C4E70CFB012104460123F0E703AB3D
:1056100000932A46124B04A93046FDF75FFB07466C
:10562000781CD6D16B6ED90705D4AB899A0502D404
:10563000A86DFEF7BDF8AB895B063FF51FAF099873
:105640001EE703AB00932A46054B04A93046FDF73D
:10565000E5FDE4E7005F00080A5F0008DD2C0008B4
:1056600015540008065F0008F8B50E4614460546B6
:1056700018B1036A0BB9FDF789FFA369A360A38979
:105680001A0701D5236943B92146284600F02AF8B4
:1056900018B14FF0FF373846F8BD23682269981AD1
:1056A0006369F6B28342374605DC21462846FFF798
:1056B00099FD0028EDD1A368013BA36023685A1C23
:1056C00022601E706269431C9A4204D0A389DB07E2
:1056D000E1D50A2EDFD121462846FFF783FD0028B9
:1056E000D9D0D6E738B5294B054618680C4618B10D
:1056F000036A0BB9FDF74AFFB4F90C30190722D43D
:10570000DA0607D409222A6043F04003A3814FF050
:10571000FF3033E0580712D5616B41B104F1440307
:10572000994202D02846FEF7FBFE00236363A3895B
:1057300023F02403A3810023636023692360A389EA
:1057400043F00803A38123694BB9A38903F42073B1
:10575000B3F5007F03D02146284600F083F8B4F962
:105760000C3013F001020AD00022A260626952429A
:10577000A261226942B913F08000C5D138BD9907F2
:1057800058BF6269A260F4E70020F7E71800002024
:105790001F2938B505460C4604D9162303604FF07F
:1057A000FF3038BDC26B12B152F821304BB92846D8
:1057B00000F030F8224601462846BDE8384000F0A7
:1057C00017B8012B0AD0591C03D1162303600120FE
:1057D000E7E7002142F82410204698470020E0E740
:1057E000024B01461868FFF7D3BF00BF1800002026
:1057F00038B5074D00230446084611462B6000F0DB
:10580000AFF8431C02D12B6803B1236038BD00BF41
:105810004C04002000F094B870B50C46B1F90E109D
:10582000002996B015461E460DDAA38913F0800FA5
:105830004FF0000114BF40234FF48063002031601B
:105840002B6016B070BD6A4600F048F80028ECDB0B
:10585000019901F47041A1F50053594259414FF4A7
:105860008063EBE78B89F7B59D0706460C4607D5A5
:1058700004F14703236023610123636103B0F0BD9A
:1058800001AB6A46FFF7C8FF009F05463946304620
:10589000FEF7BAFE48B9B4F90C309A05EED423F0FD
:1058A000030343F00203A381E2E7A389206043F0EE
:1058B0008003A381019BC4E904075BB1B4F90E1016
:1058C000304600F01DF828B1A38923F0030343F00C
:1058D0000103A381A3891D43A581CFE738B5074DF7
:1058E00000230446084611462B6000F021F8431CB3
:1058F00002D12B6803B1236038BD00BF4C040020E7
:1059000038B5064D0023044608462B6000F020F809
:10591000431C02D12B6803B1236038BD4C04002026
:10592000024B58221A604FF0FF3070474C040020A1
:10593000024B58221A604FF0FF3070474C04002091
:10594000024B58221A604FF0FF3070474C04002081
:10595000024B58221A600020704700BF4C04002000
:10596000024B58221A604FF0FF3070474C04002061
:10597000024B58221A604FF0FF3070474C04002051
:10598000024B58221A604FF0FF3070474C04002041
:10599000044A05491368002B08BF0B4618441060E1
:1059A000184670475C04002060040020024B582217
:1059B0001A604FF0FF3070474C040020FEE700BF34
:1059C0002DE9F047089D0C46002B4ED194468C459E
:1059D0008646B2FA82F262D94AB1C2F120039140FE
:1059E00020FA03F30CFA02FC194300FA02FE4FEA14
:1059F0001C471FFA8CF6B1FBF7F44FEA1E4307FB76
:105A0000141143EA014304FB06F199420AD91CEB45
:105A1000030304F1FF3080F01281994240F20F81BC
:105A2000023C6344591A1FFA8EF3B1FBF7F007FBEF
:105A3000101143EA014300FB06F69E420AD91CEB13
:105A4000030300F1FF3180F0FC809E4240F2F980B8
:105A5000634402389B1B40EA044000211DB1D3403F
:105A60000022C5E90032BDE8F0878B4205D90DB1AF
:105A7000C5E9000100210846F5E7B3FA83F10029E2
:105A800046D1A34202D39042C0F0F080861A64EB64
:105A900003030120002DE6D0C5E90063E3E7002AF7
:105AA00040F09080A1EB0C044FEA1C481FFA8CF7E1
:105AB0000121B4FBF8F64FEA1E4308FB164443EA03
:105AC000044307FB06F0984208D91CEB030306F1D8
:105AD000FF3402D2984200F2CD8026461C1A1FFAEB
