:020000040800F2
:1000000000000220912D00088D1300088F130008B6
:1000100091130008931300089513000800000000D6
:10002000000000000000000000000000971300081E
:1000300099130008000000009B1300089D1300089E
:10004000E12D0008E12D0008E12D0008E12D000858
:10005000E12D0008E12D0008E12D0008E12D000848
:10006000E12D0008E12D0008E12D0008E12D000838
:10007000E12D0008E12D0008E12D0008E12D000828
:10008000E12D0008E12D0008E12D0008E12D000818
:10009000E12D0008E12D0008E12D0008E12D000808
:1000A000E12D0008E12D0008E12D0008E12D0008F8
:1000B000E12D0008E12D0008E12D0008E12D0008E8
:1000C000E12D0008E12D0008E12D0008E12D0008D8
:1000D000E12D0008E12D0008E12D0008E12D0008C8
:1000E000E12D0008E12D0008E12D0008E12D0008B8
:1000F000E12D0008E12D0008E12D0008E12D0008A8
:10010000E12D0008E12D0008E12D0008E12D000897
:10011000E12D0008E12D0008E12D0008E12D000887
:10012000E12D0008E12D0008E12D0008E12D000877
:10013000E12D00080000000000000000E12D000893
:10014000E12D0008E12D0008E12D0008E12D000857
:10015000E12D0008E12D0008E12D0008E12D000847
:10016000E12D0008E12D0008E12D0008E12D000837
:10017000E12D0008E12D0008E12D0008000000003D
:1001800000000000E12D0008000000000000000059
:10019000E12D00080000000000000000E12D000833
:1001A000000000000000000000000000E12D000839
:1001B000E12D0008E12D0008E12D0008E12D0008E7
:0401C000E12D000825
:1001D00010B5054C237833B9044B13B10448AFF381
:1001E00000800123237010BDDC010020000000000E
:1001F000A05C000808B5034B1BB103490348AFF3EB
:10020000008008BD00000000E0010020A05C0008A4
:10021000034613F8012B002AFBD1181A0138704746
:1002200001F0FF01102A2BDB10F0070F08D010F8A7
:10023000013B013A8B422DD010F0070F42B3F6D1AB
:10024000F0B441EA012141EA014122F007047FF0C4
:1002500000070023F0E80256083C85EA010586EA1B
:10026000010685FA47F5A3FA87F586FA47F6A5FA57
:1002700087F68EB9EED1F0BC01F0FF0102F0070263
:1002800032B110F8013B013A83EA010313B1F8D10E
:100290000020704701387047002D06BF35460338EF
:1002A000073815F0010F07D1013015F4807F02BF28
:1002B000013015F4C03F0130F0BC0138704700BF79
:1002C00081F0004102E000BF83F0004330B54FEA07
:1002D00041044FEA430594EA050F08BF90EA020F74
:1002E0001FBF54EA000C55EA020C7FEA645C7FEA07
:1002F000655C00F0E2804FEA5454D4EB5555B8BF2A
:100300006D420CDD2C4480EA020281EA030382EA9A
:10031000000083EA010180EA020281EA0303362D2C
:1003200088BF30BD11F0004F4FEA01314FF4801CFF
:100330004CEA113102D0404261EB410113F0004F11
:100340004FEA03334CEA133302D0524263EB4303C8
:1003500094EA050F00F0A780A4F10104D5F1200E66
:100360000DDB02FA0EFC22FA05F2801841F10001C1
:1003700003FA0EF2801843FA05F359410EE0A5F195
:1003800020050EF1200E012A03FA0EFC28BF4CF0C6
:10039000020C43FA05F3C01851EBE37101F000457C
:1003A00007D54FF0000EDCF1000C7EEB00006EEB89
:1003B0000101B1F5801F1BD3B1F5001F0CD3490813
:1003C0005FEA30004FEA3C0C04F101044FEA44526A
:1003D00012F5800F80F09A80BCF1004F08BF5FEAF1
:1003E000500C50F1000041EB045141EA050130BDD1
:1003F0005FEA4C0C404141EB0101013C28BFB1F5E3
:10040000801FE9D291F0000F04BF01460020B1FA2D
:1004100081F308BF2033A3F10B03B3F120020CDA00
:100420000C3208DD02F1140CC2F10C0201FA0CF0DE
:1004300021FA02F10CE002F11402D8BFC2F1200C43
:1004400001FA02F120FA0CFCDCBF41EA0C019040F9
:10045000E41AA2BF01EB0451294330BD6FEA040442
:100460001F3C1CDA0C340EDC04F11404C4F120022D
:1004700020FA04F001FA02F340EA030021FA04F33F
:1004800045EA030130BDC4F10C04C4F1200220FA96
:1004900002F001FA04F340EA0300294630BD21FAD4
:1004A00004F0294630BD94F0000F83F4801306BF9A
:1004B00081F480110134013D4EE77FEA645C18BF8E
:1004C0007FEA655C29D094EA050F08BF90EA020F25
:1004D00005D054EA000C04BF1946104630BD91EA1D
:1004E000030F1EBF0021002030BD5FEA545C05D120
:1004F0004000494128BF41F0004130BD14F580045F
:100500003CBF01F5801130BD01F0004545F0FE41D2
:1005100041F470014FF0000030BD7FEA645C1ABF07
:10052000194610467FEA655C1CBF0B46024650EA3E
:10053000013406BF52EA033591EA030F41F400216A
:1005400030BD00BF90F0000F04BF0021704730B5F0
:100550004FF4806404F132044FF000054FF00001C5
:1005600050E700BF90F0000F04BF0021704730B586
:100570004FF4806404F1320410F0004548BF40425B
:100580004FF000013EE700BF42004FEAE2014FEAB0
:1005900031014FEA02701FBF12F07F4393F07F4F8B
:1005A00081F06051704732F07F4208BF704793F08E
:1005B0007F4F04BF41F40021704730B54FF46074A1
:1005C00001F0004521F000411CE700BF50EA0102A4
:1005D00008BF704730B54FF000050AE050EA01024D
:1005E00008BF704730B511F0004502D5404261EBBD
:1005F00041014FF4806404F132045FEA915C3FF4FE
:10060000D8AE4FF003025FEADC0C18BF03325FEA9A
:10061000DC0C18BF033202EBDC02C2F1200300FA4B
:1006200003FC20FA02F001FA03FE40EA0E0021FA70
:1006300002F11444BDE600BF70B54FF0FF0C4CF45E
:10064000E06C1CEA11541DBF1CEA135594EA0C0F10
:1006500095EA0C0F00F0DEF82C4481EA030621EA4B
:100660004C5123EA4C5350EA013518BF52EA033586
:1006700041F4801143F4801338D0A0FB02CE4FF038
:100680000005E1FB02E506F00042E0FB03E54FF068
:100690000006E1FB03569CF0000F18BF4EF0010E60
:1006A000A4F1FF04B6F5007F64F5407404D25FEA5C
:1006B0004E0E6D4146EB060642EAC62141EA55510F
:1006C0004FEAC52040EA5E504FEACE2EB4F1FD0C51
:1006D00088BFBCF5E06F1ED8BEF1004F08BF5FEACF
:1006E000500E50F1000041EB045170BD06F0004681
:1006F00046EA010140EA020081EA0301B4EB5C042E
:10070000C2BFD4EB0C0541EA045170BD41F4801125
:100710004FF0000E013C00F3AB8014F1360FDEBF4A
:10072000002001F0004170BDC4F10004203C35DA26
:100730000C341BDC04F11404C4F1200500FA05F3A9
:1007400020FA04F001FA05F240EA020001F000424A
:1007500021F0004110EBD37021FA04F642EB0601C0
:100760005EEA430E08BF20EAD37070BDC4F10C04EA
:10077000C4F1200500FA04F320FA05F001FA04F2AE
:1007800040EA020001F0004110EBD37041F100019A
:100790005EEA430E08BF20EAD37070BDC4F12005A5
:1007A00000FA05F24EEA020E20FA04F301FA05F20D
:1007B00043EA020321FA04F001F0004121FA04F2B5
:1007C00020EA020000EBD3705EEA430E08BF20EA85
:1007D000D37070BD94F0000F0FD101F000464000BF
:1007E00041EB010111F4801F08BF013CF7D041EA41
:1007F000060195F0000F18BF704703F00046520045
:1008000043EB030313F4801F08BF013DF7D043EA15
:100810000603704794EA0C0F0CEA135518BF95EACB
:100820000C0F0CD050EA410618BF52EA4306D1D152
:1008300081EA030101F000414FF0000070BD50EA71
:10084000410606BF1046194652EA430619D094EAFB
:100850000C0F02D150EA013613D195EA0C0F05D1E5
:1008600052EA03361CBF104619460AD181EA030139
:1008700001F0004141F0FE4141F470014FF00000F1
:1008800070BD41F0FE4141F4780170BD70B54FF08C
:10089000FF0C4CF4E06C1CEA11541DBF1CEA13550C
:1008A00094EA0C0F95EA0C0F00F0A7F8A4EB0504EE
:1008B00081EA030E52EA03354FEA013100F08880E5
:1008C0004FEA03334FF0805545EA131343EA1263AE
:1008D0004FEA022245EA111545EA10654FEA002663
:1008E0000EF000419D4208BF964244F1FD0404F51C
:1008F000407402D25B084FEA3202B61A65EB030578
:100900005B084FEA32024FF480104FF4002CB6EB34
:10091000020E75EB030E22BFB61A754640EA0C00B4
:100920005B084FEA3202B6EB020E75EB030E22BFF4
:10093000B61A754640EA5C005B084FEA3202B6EB35
:10094000020E75EB030E22BFB61A754640EA9C00F4
:100950005B084FEA3202B6EB020E75EB030E22BFC4
:10096000B61A754640EADC0055EA060E18D04FEA82
:10097000051545EA16754FEA06164FEAC30343EA22
:1009800052734FEAC2025FEA1C1CC0D111F4801FEF
:100990000BD141EA00014FF000004FF0004CB6E7E8
:1009A00011F4801F04BF01430020B4F1FD0C88BF87
:1009B000BCF5E06F3FF6AFAEB5EB030C04BFB6EB92
:1009C000020C5FEA500C50F1000041EB045170BD85
:1009D0000EF0004E4EEA113114EB5C04C2BFD4EBB2
:1009E0000C0541EA045170BD41F480114FF0000E36
:1009F000013C90E645EA060E8DE60CEA135594EAB2
:100A00000C0F08BF95EA0C0F3FF43BAF94EA0C0FB4
:100A10000AD150EA01347FF434AF95EA0C0F7FF429
:100A200025AF104619462CE795EA0C0F06D152EA7D
:100A300003353FF4FDAE1046194622E750EA410661
:100A400018BF52EA43067FF4C5AE50EA41047FF472
:100A50000DAF52EA43057FF4EBAE12E74FF0FF3CD7
:100A600006E000BF4FF0010C02E000BF4FF0010CA8
:100A70004DF804CD4FEA410C7FEA6C5C4FEA430C21
:100A800018BF7FEA6C5C1BD001B050EA410C0CBF70
:100A900052EA430C91EA030F02BF90EA020F0020D2
:100AA000704710F1000F91EA030F58BF994208BF39
:100AB00090422CBFD8176FEAE37040F001007047F6
:100AC0004FEA410C7FEA6C5C02D150EA013C07D14D
:100AD0004FEA430C7FEA6C5CD6D152EA033CD3D098
:100AE0005DF8040B704700BF8446104662468C4692
:100AF0001946634600E000BF01B5FFF7B7FF0028C5
:100B000048BF10F1000F01BD4DF808EDFFF7F4FFED
:100B10000CBF012000205DF808FB00BF4DF808ED78
:100B2000FFF7EAFF34BF012000205DF808FB00BF9B
:100B30004DF808EDFFF7E0FF94BF012000205DF8BD
:100B400008FB00BF4DF808EDFFF7CEFF94BF012072
:100B500000205DF808FB00BF4DF808EDFFF7C4FF6B
:100B600034BF012000205DF808FB00BF4FEA410CB4
:100B70007FEA6C5C02D150EA013C0AD14FEA430C97
:100B80007FEA6C5C02D152EA033C02D14FF00000D4
:100B900070474FF0010070474FEA410212F5001212
:100BA00015D211D56FF47873B3EB625212D94FEAB4
:100BB000C12343F0004343EA505311F0004F23FA9E
:100BC00002F018BF404270474FF00000704750EAF3
:100BD000013005D111F0004008BF6FF000407047B0
:100BE0004FF00000704700BF4FEA4102B2F1E0430E
:100BF00024BFB3F5001CDCF1FE5C0DD901F0004C04
:100C00004FEAC0024CEA5070B2F1004F40EB830053
:100C100008BF20F00100704711F0804F21D113F17F
:100C20003872BCBF01F00040704741F480114FEAB8
:100C30005252C2F11802C2F1200C10FA0CF320FA41
:100C400002F018BF40F001004FEAC1234FEAD3235E
:100C500003FA0CFC40EA0C0023FA02F34FEA4303C8
:100C6000CCE77FEA625307D150EA01331EBF4FF051
:100C7000FE4040F44000704701F0004040F0FE406C
:100C800040F40000704700BF53B94AB9002908BFBB
:100C900000281CBF4FF0FF314FF0FF3000F074B957
:100CA000ADF1080C6DE904CE00F006F8DDF804E0C3
:100CB000DDE9022304B070472DE9F047089D0446A2
:100CC0008E46002B4DD18A42944669D9B2FA82F2FF
:100CD00052B101FA02F3C2F1200120FA01F10CFA3B
:100CE00002FC41EA030E94404FEA1C48210CBEFB73
:100CF000F8F61FFA8CF708FB16E341EA034306FBFC
:100D000007F199420AD91CEB030306F1FF3080F08A
:100D10001F81994240F21C81023E63445B1AA4B2D7
:100D2000B3FBF8F008FB103344EA034400FB07F779
:100D3000A7420AD91CEB040400F1FF3380F00A81BA
:100D4000A74240F207816444023840EA0640E41BAF
:100D500000261DB1D4400023C5E900433146BDE85B
:100D6000F0878B4209D9002D00F0EF800026C5E9FD
:100D7000000130463146BDE8F087B3FA83F6002E15
:100D80004AD18B4202D3824200F2F980841A61EB8D
:100D9000030301209E46002DE0D0C5E9004EDDE7AB
:100DA00002B9FFDEB2FA82F2002A40F09280A1EB93
:100DB0000C014FEA1C471FFA8CFE0126200CB1FBE8
:100DC000F7F307FB131140EA01410EFB03F08842E1
:100DD00008D91CEB010103F1FF3802D2884200F26E
:100DE000CB804346091AA4B2B1FBF7F007FB101100
:100DF00044EA01440EFB00FEA64508D91CEB04049E
:100E000000F1FF3102D2A64500F2BB800846A4EBF8
:100E10000E0440EA03409CE7C6F12007B34022FAE3
:100E200007FC4CEA030C20FA07F401FA06F31C4312
:100E3000F9404FEA1C4900FA06F3B1FBF9F8200C1F
:100E40001FFA8CFE09FB181140EA014108FB0EF065
:100E5000884202FA06F20BD91CEB010108F1FF3AB5
:100E600080F08880884240F28580A8F102086144C1
:100E7000091AA4B2B1FBF9F009FB101144EA0141CF
:100E800000FB0EFE8E4508D91CEB010100F1FF347A
:100E90006CD28E456AD90238614440EA0840A0FB12
:100EA0000294A1EB0E01A142C846A64656D353D0E8
:100EB0005DB1B3EB080261EB0E0101FA07F722FA0C
:100EC00006F3F1401F43C5E9007100263146BDE835
:100ED000F087C2F12003D8400CFA02FC21FA03F398
:100EE000914001434FEA1C471FFA8CFEB3FBF7F019
:100EF00007FB10360B0C43EA064300FB0EF69E423E
:100F000004FA02F408D91CEB030300F1FF382FD2D6
:100F10009E422DD9023863449B1B89B2B3FBF7F67E
:100F200007FB163341EA034106FB0EF38B4208D957
:100F30001CEB010106F1FF3816D28B4214D9023E98
:100F40006144C91A46EA004638E72E46284605E7B6
:100F50000646E3E61846F8E64B45A9D2B9EB020887
:100F600064EB0C0E0138A3E74646EAE7204694E717
:100F70004046D1E7D0467BE7023B614432E730464A
:100F800009E76444023842E7704700BF84B000229A
:100F90000192104B196B41F080011963196B01F03C
:100FA0008001019101990292196B41F001011963CD
:100FB000196B01F001010291029903921A6B42F040
:100FC00002021A631B6B03F002030393039B04B03A
:100FD000704700BF0038024072B6FEE708B50A4805
:100FE0000A4B03600A4B436000238360C3604FF4E5
:100FF0008042026143618361C361036200F0AEFC21
:1010000000B908BDFFF7E8FF7C0200200054004053
:10101000A086010008B50A480A4B03604FF4E1338B
:10102000436000238360C36003610C2242618361DB
:10103000C36101F007FE00B908BDFFF7CDFF00BF97
:10104000D00200200044004000B595B034220021B9
:1010500007A801F0EBFE002302930393049305938A
:1010600006930093234A116C41F080511164126C75
:1010700002F080520092009A01931F4B1A6842F4CA
:1010800040421A601B6803F440430193019B012313
:1010900007934FF48033089302230D934FF480029B
:1010A0000E9204220F92B422109211931293139372
:1010B00007A801F0EBF8B0B901F0F6FBA8B90F23CF
:1010C000029302230393002304934FF4A053059348
:1010D0004FF480530693052102A800F041FF30B978
:1010E00015B05DF804FBFFF777FFFFF775FFFFF71B
:1010F00073FF00BF003802400070004080B501F06F
:1011000095FCFFF7A1FFFFF741FFFFF767FFFFF730
:1011100081FF00F04DF81E4C204600F099F8204663
:1011200000F0E2F82068FFF72FFA02460B46194F4D
:101130001949384602F0ECFA6068FFF725FA0246D2
:101140000B46164E1649304602F0E2FAA068FFF749
:101150001BFA02460B46134D1349284602F0D8FAF3
:10116000124C64231E223946204601F09AFD642366
:101170001E223146204601F094FD64231E2229469A
:10118000204601F08EFD4FF4FA7001F07BFCC2E7BF
:10119000F80100203C020020B85C00081C0200207E
:1011A000C45C00085C020020D45C0008D00200206F
:1011B0002DE9F04186B04FF47A7302930123019335
:1011C0000DF1170200927522D021204800F056FD43
:1011D0009DF81730682B02D006B0BDE8F0814FF0C3
:1011E00000088DF81680194D4FF47A770297012484
:1011F00001940DF11606009623466B22D021284655
:1012000000F08AFC07238DF81630029701940096AF
:1012100023461922D021284600F07EFC8DF8168046
:1012200002970194009623461C22D021284600F004
:1012300073FC8DF8168002970194009623461B22BA
:10124000D021284600F068FCC6E700BF7C020020E1
:1012500070B586B004464FF47A7302930623019367
:1012600004AB009301233B22D0211D4800F006FD72
:101270009DF810309DF8110040EA032000B2E08391
:101280009DF812309DF8136046EA032636B2268494
:101290009DF814309DF8155045EA03252DB265845C
:1012A000FFF760F900220F4BFFF7C6F9FFF79CFC30
:1012B000E0603046FFF756F900220A4BFFF7BCF911
:1012C000FFF792FC20612846FFF74CF90022054BFE
:1012D000FFF7B2F9FFF788FC606106B070BD00BF90
:1012E0007C0200200000303F70B586B004464FF409
:1012F0007A7302930623019304AB009301233B22EC
:10130000D021214800F0BAFC9DF810309DF8110062
:1013100040EA032000B220839DF812309DF813604C
:1013200046EA032636B266839DF814309DF81550C0
:1013300045EA03252DB2A583FFF714F910A3D3E9DD
:101340000023FFF7A3FAFFF74FFC20603046FFF7BA
:1013500009F90BA3D3E90023FFF798FAFFF744FC40
:1013600060602846FFF7FEF805A3D3E90023FFF7E6
:101370008DFAFFF739FCA06006B070BDAFF30080B6
:1013800000000000006050407C020020FEE7FEE705
:10139000FEE7FEE7FEE770477047704708B501F0CB
:1013A0005FFB08BD00B583B0002100910C4B5A6C67
:1013B00042F480425A645A6C02F480420092009ACD
:1013C00001911A6C42F080521A641B6C03F0805336
:1013D0000193019B072001F0A5FA03B05DF804FB1F
:1013E0000038024030B589B000230393049305937D
:1013F000069307930268144B9A4201D009B030BD9E
:1014000000250195114C236B43F002032363236BEA
:1014100003F002030193019B4FF4407303931223E3
:101420000493032306930423079303A9084801F0B8
:101430004FF90295236C43F400132364236C03F4E7
:1014400000130293029BD9E7005400400038024089
:101450000004024000B589B0002303930493059370
:10146000069307930268154B9A4202D009B05DF8C3
:1014700004FB0021019103F5FA331A6C42F40032A7
:101480001A641A6C02F400320192019A02911A6BEA
:1014900042F001021A631B6B03F001030293029BEB
:1014A0000C23039302230493032306930723079338
:1014B00003A9034801F00CF9D8E700BF004400403D
:1014C0000000024003685A6912F4806F01D10020C5
:1014D00070476FF480625A6100230363202280F812
:1014E0003D2080F83E30026C42F00402026480F835
:1014F0003C30012070472DE9F04107460D469046EB
:101500001E4624E001F0B8FA069BC01AB04200D88B
:10151000EEB900233B63202287F83D2087F83E3058
:101520003A6C42F020023A6487F83C3001201EE019
:101530003B689C6925EA040C1FFA8CFCBCFA8CFC05
:101540004FEA5C1CE04511D1B6F1FF3FDAD1C5F39B
:101550000743012BECD13B685B6925EA030C1FFABA
:101560008CFCBCFA8CFC4FEA5C1CEBE70020BDE86D
:10157000F0812DE9F04105460E46174698463DE0BC
:101580001A6842F400721A602B686FF480625A6124
:1015900000232B63202285F83D2085F83E302A6CFD
:1015A00042F004022A6485F83C30012034E001F066
:1015B00063FAA0EB0800B84200D8FFB900232B6300
:1015C000202285F83D2085F83E302A6C42F020022A
:1015D0002A6485F83C3001201EE02B689C6926EACD
:1015E0000404A4B2003C18BF0124A4B12B685A69BA
:1015F00012F4806FC4D1B7F1FF3FD8D1C6F30743CF
:10160000012BEAD12B685C6926EA0404A4B2003CF1
:1016100018BF0124E9E70020BDE8F08170B5044659
:101620000D46164623685B6913F0800F1CD12046D7
:10163000FFF748FFD0B9B5F1FF3FF3D001F01CFA36
:10164000801BA84201D8002DECD100232363202267
:1016500084F83D2084F83E30226C42F0200222645F
:1016600084F83C30012000E0002070BD0120FCE740
:101670002DE9F04385B004460D4691461F46DDF83E
:1016800030800D9E0368196841F4807119600096DE
:10169000434600224FF00111FFF72DFF60B9236888
:1016A00005F0FE051D613346424626492046FFF7F8
:1016B00060FF68B1012008E023681B6813F4807F95
:1016C00002D04FF400732364032005B0BDE8F0831B
:1016D0000023039323685A6903929B690393039B36
:1016E000324641462046FFF799FF30B9012F0FD10E
:1016F00023685FFA89F61E61E7E7236C042B01D0AB
:101700000120E2E72268136843F400731360F7E7EF
:1017100023684FEA19221A61324641462046FFF7F4
:101720007DFF20B923685FFA89F61E61CDE7236C3F
:10173000042B01D00120C8E72268136843F400732A
:101740001360F7E7020001002DE9F04784B004467A
:101750000D46164699460C9FDDF8348002681368E2
:1017600043F4806313600368196841F48071196061
:10177000CDF800803B4600224FF00111FFF7BBFE81
:1017800070B95FFA85FA236805F0FE051D614346CE
:101790003A4641492046FFF7ECFE68B1012008E0D7
:1017A00023681B6813F4807F02D04FF40073236416
:1017B000032004B0BDE8F0870023039323685A692F
:1017C00003929B690393039B424639462046FFF7E9
:1017D00025FF80B9B9F1010F18D12368F6B21E6157
:1017E000424639462046FFF719FF68B3236C042BA5
:1017F00024D00120DDE7236C042B01D00120D8E7A1
:101800002268136843F400731360F7E72368320A11
:101810001A61424639462046FFF700FF18B923688F
:10182000F6B21E61DCE7236C042B01D00120C0E777
:101830002268136843F400731360F7E722681368A3
:1018400043F400731360D4E72268136843F4807391
:101850001360CDF800803B4600224FF00111204676
:10186000FFF749FE68B922684AF001031361434655
:101870003A4609492046FFF77CFE002899D001200E
:1018800097E723681B6813F4807F02D04FF400733E
:10189000236403208DE700BF0200010070B50446F9
:1018A0000D46164623685B6913F0040F1CD12046D1
:1018B000FFF708FED0B9B5F1FF3FF3D001F0DCF837
:1018C000801BA84201D8002DECD1002323632022E5
:1018D00084F83D2084F83E30226C42F020022264DD
:1018E00084F83C30012000E0002070BD0120FCE7BE
:1018F00070B505460C4616462B68596911F0400F25
:1019000029D1596911F0100F15D101F0B5F8801BDC
:10191000A04201D8002CEFD100232B63202285F8B0
:101920003D2085F83E302A6C42F020022A6485F87A
:101930003C30012070BD6FF010025A6100232B6310
:10194000202285F83D2085F83E302A6C2A6485F8EF
:101950003C300120EEE70020ECE70000002800F01A
:10196000CC8070B5044690F83D30002B77D024230E
:1019700084F83D302268136823F001031360226865
:10198000136843F4004313602268136823F4004390
:10199000136000F09BFB62685A4B9A4264D85A4B22
:1019A00098428CBF00230123002B40F0A8805749A8
:1019B000A1FB00318B0C25686A6822F03F0242EAE5
:1019C00091426A6021680A6A22F03F0266684D4DC2
:1019D000AE424FD8013313430B622168CA6922F427
:1019E0004F4222F0FF026668464B9E424CD8431E8F
:1019F0007600B3FBF6F3013340F6FC70034278D077
:101A0000C3F30B031343CB6121680B6823F0C003BE
:101A1000E269206A024313430B6021688B6823F458
:101A2000034323F0FF032269E068024313438B6002
:101A30002168CB6823F0FF036269A0690243134366
:101A4000CB602268136843F0010313600020206418
:101A5000202384F83D30206384F83E0070BD80F878
:101A60003C30FFF7BFFC82E7294B98428CBF002334
:101A7000012399E74FF4967505FB03F3254DA5FB6C
:101A800003539B090133A6E7A368BBB9451E06EBC8
:101A9000460CB5FBFCF50135C5F30B05B5FA85F52C
:101AA0006D0945BBC3B9013806EB4603B0FBF3F340
:101AB0000133C3F30B0343F40043A3E7451E06EBD6
:101AC000860C0CEB8C0CB5FBFCF50135C5F30B0556
:101AD000B5FA85F56D09E4E7013806EB860303EBFB
:101AE0008303B0FBF3F30133C3F30B0343F440432D
:101AF00088E7042386E7012384E70120704701205B
:101B0000ACE700BFA08601007F841E0083DE1B437C
:101B1000FF083D00D34D62102DE9F04383B0044629
:101B20000F46904699460C9E00F0A6FF054694F895
:101B30003D00C0B2202803D0022003B0BDE8F083EE
:101B40000095192301224B492046FFF7D4FC0028B9
:101B500040F0898094F83C30012B00F0868001230E
:101B600084F83C3023681A6812F0010F03D11A6818
:101B700042F001021A602268136823F400631360C4
:101B8000212384F83D30402384F83E300023236431
:101B90000A9B6362BDF82C306385638D2385364BC9
:101BA000E362019500964B46424639462046FFF7D0
:101BB0005FFD00285BD1238D002B35D02A463146AE
:101BC0002046FFF72BFD20BB626A236812781A615A
:101BD000626A531C6362218D013989B22185638D4C
:101BE0009BB2013B9BB263852368586910F0040FD8
:101BF000E1D00029DFD052781A61636A0133636251
:101C0000238D013B2385638D9BB2013B9BB2638592
:101C1000D1E7236C042B01D001208EE722681368E2
:101C200043F400731360F7E72A4631462046FFF776
:101C300035FE50B1236C042B01D001207DE72268D2
:101C4000136843F400731360F7E72268136843F4E2
:101C500000731360202384F83D30002384F83E3065
:101C600084F83C3069E7022067E7022065E701203D
:101C700063E700BF020010000000FFFF2DE9F04302
:101C800087B004460F4690469946109E00F0F4FE39
:101C9000054694F83D00C0B2202804D002273846FB
:101CA00007B0BDE8F083009519230122884920463A
:101CB000FFF721FC002840F0438194F83C30012BD1
:101CC00000F04081012384F83C3023681A6812F048
:101CD000010F03D11A6842F001021A6022681368EA
:101CE00023F400631360222384F83D30402384F8FA
:101CF0003E30002323640E9B6362BDF83C30638555
:101D0000638D2385734BE362019500964B464246F3
:101D100039462046FFF718FD0746002840F0148199
:101D2000238D5BB9029323685A6902929A690292E1
:101D3000029A1A6842F400721A6075E0012B0AD008
:101D4000022B1AD00023059323685A6905929B69D8
:101D50000593059B68E02268136823F48063136091
:101D60000023039323685A6903929A690392039AA2
:101D70001A6842F400721A6056E02268136823F46D
:101D8000806313602268136843F4006313600023C8
:101D9000049323685A6904929B690493049B43E06B
:101DA0002A4631462046FFF7A3FD002840F0CE80AA
:101DB00023681A69636A1A70636A01336362238D48
:101DC000013B2385638D9BB2013B9BB263852BE076
:101DD00000953346002240492046FFF78CFB00283F
:101DE00040F0B6802268136843F4007313602368E0
:101DF0001A69636A1A70626A531C6362238D013B1D
:101E00002385638D9BB2013B9BB2638523681B696D
:101E10005370636A01336362238D013B2385638DB5
:101E20009BB2013B9BB26385238D002B7FD0032B9C
:101E300054D8012BB4D0022BCAD0009533460022CF
:101E400025492046FFF757FB002840F08380226891
:101E5000136823F48063136023681A69636A1A7035
:101E6000636A01336362238D013B2385638D9BB2DB
:101E7000013B9BB2638500953346002216492046FC
:101E8000FFF739FB002867D12268136843F4007319
:101E9000136023681A69636A1A70626A531C63626A
:101EA000238D013B2385638D9BB2013B9BB26385F0
:101EB00023681B695370636A01336362238D013B9E
:101EC0002385638D9BB2013B9BB26385ACE700BF6A
:101ED000020010000000FFFF040001002A46314606
:101EE0002046FFF705FD002838D123681A69636A88
:101EF0001A70626A531C6362238D013B2385638DD4
:101F00009BB2013B9BB263852368596911F0040FB2
:101F10008AD01B695370636A01336362238D013B6E
:101F20002385638D9BB2013B9BB263857CE72023B5
:101F300084F83D30002384F83E3084F83C30AEE62F
:101F40000227ACE60227AAE60127A8E60127A6E6B3
:101F50000127A4E60127A2E60127A0E601279EE6C5
:101F6000002800F09B8070B50D4604464F4B1B685F
:101F700003F00F038B4208D2CBB24C4A13701368A4
:101F800003F00F038B4240F08B80236813F0020FA5
:101F900017D013F0040F04D0454A936843F4E0537C
:101FA0009360236813F0080F04D0414A936843F408
:101FB000604393603E4A936823F0F003A1680B43AB
:101FC0009360236813F0010F32D06368012B21D096
:101FD0009A1E012A25D9364A126812F0020F61D0E2
:101FE00033498A6822F0030213438B6000F044FDFA
:101FF00006462F4B9B6803F00C036268B3EB820F1D
:1020000016D000F039FD801B41F288339842F0D998
:10201000032042E0264A126812F4003FE0D101207A
:102020003BE0234A126812F0007FD9D1012034E04E
:102030001E4B1B6803F00F03AB4207D9EAB21B4BE0
:102040001A701B6803F00F03AB422DD1236813F005
:10205000040F06D0164A936823F4E053E1680B435B
:102060009360236813F0080F07D0114A936823F494
:102070006043216943EAC103936000F047F80C4BC9
:102080009B68C3F303130B4AD35CD8400A4B186018
:102090000A4B186800F0A4FC002070BD01207047B6
:1020A0000120FAE70120F8E70120F6E7003C0240B2
:1020B00000380240E05C0008080000200400002016
:1020C000014B1868704700BF0800002008B5FFF7F3
:1020D000F7FF044B9B68C3F38223034AD35CD840C9
:1020E00008BD00BF00380240F05C000808B5FFF7EB
:1020F000E7FF044B9B68C3F34233034AD35CD840E9
:1021000008BD00BF00380240F05C000808B55C4B19
:102110009B6803F00C03082B07D00C2B5BD0042B1F
:1021200001D0584808BD5848FCE7554B5A6802F0A2
:102130003F025B6813F4800F2AD0514B5968C1F3FA
:10214000881C4FEA4C11B1EB0C006EEB0E0E4FEAFF
:102150008E1343EA90638101091A63EB0E03DB00DF
:1021600043EA5173C90011EB0C0C43F1000359020F
:1021700000234FEA4C2041EADC51FEF785FD404B3D
:102180005B68C3F3014301335B00B0FBF3F0C9E7C5
:102190003B4B5968C1F3881C4FEA4C11B1EB0C0062
:1021A0006EEB0E0E4FEA8E1343EA90638101091A1B
:1021B00063EB0E03DB0043EA5173C90011EB0C0C17
:1021C00043F10003990200234FEA8C2041EA9C511D
:1021D000FEF75AFDD3E72A4B5A6802F03F025B68CC
:1021E00013F4800F28D0264B5968C1F3881C4FEA9E
:1021F0004C11B1EB0C006EEB0E0E4FEA8E1343EA5E
:1022000090638101091A63EB0E03DB0043EA51730B
:10221000C90011EB0C0C43F10003590200234FEAF3
:102220004C2041EADC51FEF72FFD154B5B68C3F3F0
:102230000273B0FBF3F075E7114B5968C1F3881CCA
:102240004FEA4C11B1EB0C006EEB0E0E4FEA8E1301
:1022500043EA90638101091A63EB0E03DB0043EA52
:102260005173C90011EB0C0C43F1000399020023D8
:102270004FEA8C2041EA9C51FEF706FDD5E700BFEE
:10228000003802400024F40000127A00002800F018
:10229000018270B582B00446036813F0010F41D08B
:1022A000994B9B6803F00C03042B32D0964B9B6830
:1022B00003F00C03082B27D0934B9B6803F00C030F
:1022C0000C2B59D06368B3F5803F5BD0B3F5A02FDA
:1022D0005ED08D4B1A6822F480321A601A6822F49C
:1022E00080221A606368002B5CD000F0C5FB0546B5
:1022F000854B1B6813F4003F14D100F0BDFB401B5D
:102300006428F5D90320CCE17F4B5B6813F4800F80
:10231000D2D07D4B1B6813F4003F03D06368002BC1
:1023200000F0BA81236813F0020F60D0764B9B68EF
:1023300013F00C0F4AD0744B9B6803F00C03082B6E
:102340003FD0714B9B6803F00C030C2B69D0E36802
:10235000002B75D06D4B01221A6000F08DFB0546F5
:10236000694B1B6813F0020F61D100F085FB401B25
:102370000228F5D9032094E1634B5B6813F4800FC6
:10238000A0D0C6E7604A136843F480331360A9E71E
:102390005D4B1A6842F480221A601A6842F4803257
:1023A0001A609FE700F068FB0546574B1B6813F463
:1023B000003FB7D000F060FB401B6428F5D9032034
:1023C0006FE1514B5B6813F4800FBAD14E4B1B6821
:1023D00013F0020F03D0E368012B40F05F814A4AFB
:1023E000136823F0F803216943EAC10313602368EB
:1023F00013F0080F49D06369002B33D0434B0122FF
:10240000C3F8802E00F038FB05463F4B5B6F13F09E
:10241000020F3AD100F030FB401B0228F5D903200F
:102420003FE1394B5B6813F4800F90D1CEE7364A19
:10243000136823F0F803216943EAC1031360D6E768
:10244000324B00221A6000F017FB05462E4B1B682A
:1024500013F0020FCBD000F00FFB401B0228F5D980
:1024600003201EE1294B0022C3F8802E00F004FB5C
:102470000546254B5B6F13F0020F06D000F0FCFA07
:10248000401B0228F5D903200BE1236813F0040F49
:1024900076D01D4B1B6C13F0805F33D1002301936A
:1024A000194B1A6C42F080521A641B6C03F0805373
:1024B0000193019B0125164B1B6813F4807F29D0E3
:1024C000A368012B3AD0052B3ED00F4B1A6F22F098
:1024D00001021A671A6F22F004021A67A368002B20
:1024E0003CD000F0C9FA0646074B1B6F13F0020FF1
:1024F00045D100F0C1FA801B41F288339842F3D9EC
:102500000320CEE00025D6E7003802400000474215
:10251000007000406B4A136843F48073136000F04E
:10252000ABFA0646674B1B6813F4807FC8D100F0F6
:10253000A3FA801B0228F5D90320B2E0624A136F88
:1025400043F001031367C9E75F4B1A6F42F00402BF
:102550001A671A6F42F001021A67BFE700F08CFA9F
:102560000646594B1B6F13F0020F08D000F084FA97
:10257000801B41F288339842F3D9032091E0EDB9F2
:10258000A369002B00F08C804F4A926802F00C0285
:10259000082A54D0022B17D04C4B00221A6600F0A8
:1025A0006BFA0446484B1B6813F0007F45D000F0DF
:1025B00063FA001B0228F5D9032072E0424A136C2B
:1025C00023F080531364DBE7404B00221A6600F0CF
:1025D00053FA05463C4B1B6813F0007F06D000F011
:1025E0004BFA401B0228F5D903205AE0E369226A1E
:1025F0001343626A43EA8213A26A5208013A43EA29
:102600000243E26A43EA0263226B43EA02732E4A00
:1026100053602E4B01221A6600F02EFA04462A4B14
:102620001B6813F0007F06D100F026FA001B022879
:10263000F5D9032035E0002033E0002031E0012B04
:1026400031D0214B5B6803F48001E26991422CD1C7
:1026500003F03F02216A8A4229D1616A47F6C072BB
:102660001A40B2EB811F24D103F44031A26A520810
:10267000013AB1EB024F1ED103F07062E16AB2EB96
:10268000016F1AD103F0E043226BB3EB027F16D146
:10269000002006E001207047012002E0012000E058
:1026A000002002B070BD0120FBE70120F9E7012006
:1026B000F7E70120F5E70120F3E70120F1E701202A
:1026C000EFE700BF007000400038024000004742C2
:1026D00000230F2B00F2DE8070B582B060E08568C9
:1026E0005E000324B44025EA0405CC68B4402C43C2
:1026F0008460456825EA02054C68C4F300129A40DC
:102700002A4342605AE0DC08083450F8246003F0A1
:10271000070295000F22AA4026EA020E0A69AA4083
:1027200042EA0E0240F824205CE0062200E000228B
:1027300002FA0EF22A430234574D45F82420574A34
:1027400094686FEA0C0224EA0C054E6816F4801FA8
:1027500001D04CEA0405514CA560E46802EA040586
:102760004E6816F4001F01D04CEA04054B4CE5609E
:10277000646802EA04054E6816F4003F01D04CEA92
:102780000405464C6560246822404D6815F4803F7E
:1027900001D04CEA0402414C226001330F2B77D860
:1027A00001229A400C6804EA020C32EA0404F4D1D3
:1027B0004C6804F00304013C012C90D94A6802F0F3
:1027C0000302032A09D0C4685D000322AA4024EA58
:1027D00002048A68AA402243C2604A6802F00302E7
:1027E000022A90D004684FEA430E032202FA0EF246
:1027F00024EA02044A6802F0030202FA0EF22243BB
:1028000002604A6812F4403FC7D000220192244A75
:10281000546C44F480445464526C02F4804201923B
:10282000019A9C08A51C1C4A52F8255003F003028B
:102830004FEA820E0F2202FA0EF225EA0205194A29
:1028400090423FF474AF02F58062904216D002F5D8
:102850008062904214D002F58062904212D002F55C
:102860008062904210D002F5806290420ED002F554
:10287000806290423FF459AF072259E7012257E79F
:10288000022255E7032253E7042251E705224FE7CE
:1028900002B070BD704700BF00380140003C0140ED
:1028A000003802400000024010B582B000230193BE
:1028B000194B1A6C42F080521A641B6C03F080535F
:1028C0000193019B154B01221A6400F0D5F80446D0
:1028D000134B5B6813F4803F08D100F0CDF8001B68
:1028E000B0F57A7FF4D9032002B010BD0B4B012262
:1028F0005A6400F0C1F80446094B5B6813F4003FCA
:1029000007D100F0B9F8001BB0F57A7FF4D90320A5
:10291000EAE70020E8E700BF0038024000000E426E
:1029200000700040074AD36823F4E0631B041B0CCB
:10293000000200F4E060034343F0BF6343F400335C
:10294000D360704700ED00E000B5194BDB68C3F3BE
:102950000223C3F1070CBCF1040F28BF4FF0040C95
:1029600003F1040EBEF1060F18D9033B4FF0FF3EF2
:102970000EFA0CFC21EA0C0199400EFA03F322EA4C
:102980000303194300280BDB0901C9B200F16040C1
:1029900000F5614080F800135DF804FB0023E5E7D3
:1029A00000F00F000901C9B2024B1954F4E700BF4F
:1029B00000ED00E014ED00E00138B0F1807F0BD2B3
:1029C0004FF0E0235861054AF02182F823100020DF
:1029D000986107221A6170470120704700ED00E0FE
:1029E00010B504460E4B18784FF47A73B3FBF0F32E
:1029F0000C4A1068B0FBF3F0FFF7DEFF68B90F2C4C
:102A000001D901200AE0002221464FF0FF30FFF7F4
:102A10009BFF054B1C60002000E0012010BD00BFA3
:102A200000000020080000200400002008B50B4B27
:102A30001A6842F400721A601A6842F480621A60DE
:102A40001A6842F480721A600320FFF76BFF0020BF
:102A5000FFF7C6FFFEF7A6FC002008BD003C0240C1
:102A6000034A1168034B1B780B441360704700BF87
:102A70001403002000000020014B1868704700BFBD
:102A80001403002038B50446FFF7F6FF0546B4F1FD
:102A9000FF3F02D0044B1B781C44FFF7EDFF401BA7
:102AA000A042FAD338BD00BF0000002038B504466C
:102AB0000268136923F44053C1680B4313618368B0
:102AC0000269134342691343C2691A430168CB6820
:102AD00023F4164323F00C031343CB6002685369BD
:102AE00023F4407381690B4353610368314A934275
:102AF00006D002F58062934202D0FFF7E7FA01E0C8
:102B0000FFF7F4FAE369B3F5004F29D00021031869
:102B100049411B1841F10001C90041EA5371DB0032
:102B2000181863684FEA83024FEA937341F100017A
:102B3000FEF7AAF8204DA5FB00325109642303FBE0
:102B400011031B013233A5FB03235B0903F0F002E1
:102B500002EB011203F00F03216813448B6038BDB0
:102B60000023021843EB0301121841F10001C900D0
:102B700041EA5271D200101841F1000162689218C6
:102B80005B41FEF781F80C4DA5FB0032510964232F
:102B900003FB1103DB003233A5FB03235B095A005F
:102BA00002F4F87202EB011203F0070321681344E8
:102BB0008B60D4E7001001401F85EB512DE9F843ED
:102BC00005460F4616469946DDF820802C68246895
:102BD00037EA04030CBF4FF0010C4FF0000CB44572
:102BE0002DD1B8F1FF3FF1D0B8F1000F05D0FFF7BC
:102BF00043FFA0EB09004045E8D92A6802F10C0325
:102C000053E8003F23F4D0730C3242E8003100292E
:102C1000F3D12A6802F1140353E8003F23F00103C3
:102C2000143242E800310029F3D1202385F83D30E9
:102C300085F83E30002385F83C30032000E000207A
:102C4000BDE8F88358B310B5044690F83D300BB397
:102C5000242384F83D302268D36823F40053D360E2
:102C60002046FFF723FF2268136923F49043136182
:102C70002268536923F02A0353612268D36843F41E
:102C80000053D36000202064202384F83D3084F872
:102C90003E3010BD80F83C30FEF7DCFBD8E7012069
:102CA00070472DE9F04182B01E4690F83D30DBB20E
:102CB000202B54D104460D469046002953D0002ABB
:102CC00053D090F83C30012B51D0012380F83C3098
:102CD00000230364212380F83D30FFF7CDFE074633
:102CE000A4F82480A4F82680A368B3F5805F05D0FB
:102CF0004FF00008002384F83C3012E0236913B140
:102D00004FF00008F6E7A8460025F3E738F8023B45
:102D10002268C3F308035360E28C92B2013A92B284
:102D2000E284E38C9BB273B100963B460022802183
:102D30002046FFF743FFE0B9002DE7D015F8012B3F
:102D400023685A60E8E700963B460022402120466F
:102D5000FFF734FF78B9202384F83D3000E00220EB
:102D600002B0BDE8F0810120FAE70120F8E7022077
:102D7000F6E70320F4E70320F2E70000034AD2F865
:102D8000883043F47003C2F88830704700ED00E0EB
:102D9000DFF834D00D480E490E4A002302E0D45823
:102DA000C4500433C4188C42F9D30B4A0B4C002393
:102DB00001E013600432A242FBD3FFF7DFFF00F013
:102DC00011F8FEF79BF97047000002200000002078
:102DD000DC0100202C610008DC0100202C03002015
:102DE000FEE7000070B50D4D0D4C641BA4100026CD
:102DF000A64209D10B4D0C4C02F052FF641BA410EB
:102E00000026A64205D170BD55F8043B984701360F
:102E1000EEE755F8043B98470136F2E724610008D5
:102E20002461000824610008286100080244034668
:102E3000934200D1704703F8011BF9E72DE9FF47E2
:102E400055EC104B002D0E4619462B46BBBF05F125
:102E500000431D4600232D230B700D9BDDF830A091
:102E6000914623F02008BCBF22461446B8F1460F15
:102E700005D0B8F1450F00D10136022100E0032151
:102E800003AB019302AB009345EC104B5346324623
:102E900000F0EAFCB8F1470F074602D119F0010F24
:102EA00022D0B8F1460F07EB060910D13B78302B42
:102EB0000AD10022002320462946FDF725FE18B935
:102EC000C6F10106CAF80060DAF800309944002221
:102ED000002320462946FDF717FE08B1CDF80C90D7
:102EE0003022039B4B4507D3039B0E9ADB1B3846CE
:102EF000136004B0BDE8F087591C03911A70F0E725
:102F0000F7B503460029B8BF494203F8022BB4BF06
:102F10002D222B22092942702ADD0DF10704A44637
:102F20000A27A6460A4691FBF7F607FB1615303529
:102F3000632A04F1FF340EF8015C3146F1DC3031D4
:102F4000AEF1020504F8011C441C294661450AD370
:102F50000DF10902A2EB0E02654588BF0022134461
:102F6000181A03B0F0BD11F8012B04F8012FEDE79A
:102F7000302330318370C170031DF1E72DE9F04F2C
:102F80002DED028B8DB00C46DDF8608016461F4695
:102F9000054601F057FAD0F800A05046FDF738F981
:102FA00000230A9323680593D8F8003094F818B0EA
:102FB000073323F0070303F10802C8F80020D3E920
:102FC0000023C4E91223D4E9128929F000430793AE
:102FD000CDF8188008EE100A9F4BDDE906014FF08E
:102FE000FF32FDF7C3FD88BBDDE906019A4B4FF0C8
:102FF000FF32FDF79DFD48BB0022002340464946B5
:10300000FDF78CFD10B12D2384F84330934B944889
:10301000BBF1470F94BF9846804603232361059B6D
:1030200023F0040222604FF00009009733460BAAF8
:103030002146284600F0D8F9013040F090804FF04A
:10304000FF300DB0BDEC028BBDE8F08F42464B4621
:1030500040464946FDF78AFD40B14B46002BBCBFB8
:103060002D2384F843307F487F4BD1E763680BF012
:10307000DF0206925A1C3FD106236360059B6168FC
:1030800043F48062002303930AABCDE901B309AB9B
:1030900049EC108B009322600DF123032846FFF7C3
:1030A000CDFE069B0999472B804608D1C81C02DB40
:1030B0006368994241DDABF1020B5FFA8BFBBBF118
:1030C000650F20D801395A4604F150000991FFF7E5
:1030D00017FF0A9A1318012A8146236102DC22682D
:1030E000D20701D5013323619DF82330002B9CD0FA
:1030F0002D2384F8433098E7069A472ABED1002B47
:10310000BCD10123B9E7BBF1660F18D10029636870
:103110000BDD216113B92268D00702D501330B44BE
:103120002361A1654FF00009DEE713B92268D207D9
:1031300001D50233F4E70123F2E74FF0670B0A9B56
:10314000994205DB23682161D807EAD54B1CE7E7E4
:103150000029D4BFC1F1020201221344E0E7236831
:103160005A0507D42369424631462846B8470130FC
:103170002CD164E7BBF1650F40F2E080D4E9120185
:1031800000220023FDF7C0FC002834D0374A012379
:1031900031462846B84701303FF451AFDDE90923F5
:1031A0009A4202DB2368D80710D518EE103A52462F
:1031B00031462846B84701303FF441AF4FF0000890
:1031C00004F11A090A9B013B434509DC23689B076C
:1031D00000F10581E0680B9B9842B8BF184630E7C4
:1031E00001234A4631462846B84701303FF427AF0D
:1031F00008F10108E6E7099B002B39DC1B4A012393
:1032000031462846B84701303FF419AFDDE90923BC
:10321000134302D12368D907D8D518EE103A524685
:1032200031462846B84701303FF409AF4FF0000956
:1032300004F11A0A099B5B424B4501DC0A9B92E7A9
:103240000123524631462846B84701303FF4F7AED5
:1032500009F10109EEE700BFFFFFEF7FFC5C00080A
:10326000005D0008085D0008045D00080C5D0008B2
:103270000A9AA36D9A42A8BF1A46002A914637DCE3
:103280004FF0000B29EAE97904F11A02A36D0593C6
:10329000A3EB09035B4533DCDDE909239A423BDB01
:1032A0002368DA0738D40A9B059A09999A1AA3EB7E
:1032B00001099145A8BF9146B9F1000F35DC4FF0E7
:1032C000000829EAE97904F11A0ADDE909239B1AC1
:1032D000A3EB090343457FF779AF012352463146FB
:1032E0002846B84701303FF4AAAE08F10108ECE7E0
:1032F0001346314642462846B8470130C0D19EE6C3
:103300000123314628460592B84701303FF497AE75
:10331000059A0BF1010BB9E718EE103A5246314607
:103320002846B8470130BED189E6059A4B4642444B
:1033300031462846B8470130C1D180E60A9A012AB1
:1033400001DCDB0738D50123424631462846B84721
:1033500001303FF474AE18EE103A5246314628461A
:10336000B84701303FF46BAED4E9120100220023CC
:10337000FDF7CAFBD8B90A9B08F10102013B3146AF
:103380002846B84701300ED159E60123524631464E
:103390002846B84701303FF452AE08F101080A9BB5
:1033A000013B4345F1DC4B4604F15002DCE64FF0B3
:1033B000000804F11A0AF2E701234246DFE701237D
:1033C0004A4631462846B84701303FF438AE08F146
:1033D0000108E3680B995B1A4345F0DCFAE64FF00D
:1033E000000804F11909F4E72DE9F047164699465B
:1033F0008A680B69DDF820809342B8BF13463360BA
:1034000091F8432007460C460AB101333360236824
:10341000990642BF336802333360256815F006050C
:1034200006D104F1190AE36832689B1AAB4226DC24
:1034300094F84320131E226818BF012392062BD450
:1034400004F1430249463846C04701301ED0236884
:10345000E568326803F00603042B08BFAD1AA368C1
:1034600022690CBF25EAE57500259342C4BF9B1A6B
:10347000ED1800261A34B5421AD1002008E00123C5
:10348000524649463846C047013003D14FF0FF301D
:10349000BDE8F0870135C6E7E1185A1C302081F8F5
:1034A0004300224494F8451082F843100233C7E7E2
:1034B0000123224649463846C0470130E6D001364E
:1034C000D9E700002DE9FF470F7E0C9D782F91462C
:1034D00080460C469A4601F1430207D8622F0AD86B
:1034E000002F00F0D880582F00F0A38004F142058F
:1034F00084F842703AE0A7F16303152BF6D801A1D6
:1035000051F823F05D35000871350008ED340008EE
:10351000ED340008ED340008ED3400087135000882
:10352000ED340008ED340008ED340008ED340008F7
:103530007D360008A13500085F360008ED3400082C
:10354000ED3400089F360008ED340008A13500086E
:10355000ED340008ED340008673600082B681A1DAA
:103560001B682A6004F1420584F842300123A3E07D
:1035700020682968060601F104030AD50E682B604D
:10358000002E03DA2D23764284F843305E480A2366
:1035900019E00E682B6010F0400F18BF36B2EFE74D
:1035A0002B682068191D2960010601D51E6802E0FC
:1035B0004606FBD51E8854486F2F0CBF08230A23EC
:1035C000002184F843106568A560002DA2BF216822
:1035D00021F0040121600EB9002D4DD01546B6FB37
:1035E000F3F103FB1167C75D05F8017D3746BB4268
:1035F0000E46F4D9082B0BD12368DE0708D52369C2
:1036000061689942DEBF302305F8013C05F1FF35C2
:10361000521B2261CDF800A04B4603AA214640462A
:10362000FFF7E2FE01304CD14FF0FF3004B0BDE8AF
:10363000F087354881F845702968236851F8046B94
:1036400029601D0614D5DF0744BF43F02003236023
:103650001EB9236823F0200323601023B0E72368FA
:1036600043F0200323607823284884F84530E3E7BB
:10367000590648BFB6B2E6E71546BBE72B68266891
:103680006169181D286035061B6801D5196002E0C4
:103690007006FBD51980002323611546BAE72B6815
:1036A0001A1D2A601D68626800212846FCF7B8FDD3
:1036B00008B1401B606063682361002384F84330D5
:1036C000A8E723692A4649464046D0470130ABD097
:1036D00023689B0713D4E068039B9842B8BF184641
:1036E000A4E70123324649464046D04701309BD0EB
:1036F0000135E36803995B1AAB42F2DCEBE7002586
:1037000004F11906F5E700BF0E5D00081F5D000813
:103710000EB400B59CB01DAB029006906FF0004156
:10372000094807910491094953F8042B0591006851
:10373000019302A901F076FB029B00221A701CB0D3
:103740005DF804EB03B070470C0000200802FFFF97
:103750002DE9F74F03690C69A3420746C0F2818047
:10376000013C01F1140800F1140505EB84030193F9
:1037700058F8243055F8242001339A424FEA840B3C
:1037800008EB8409B2FBF3F631D34FF0000E40464C
:10379000AC46F24650F8042B93B206FB03E34FEA23
:1037A000134E9BB2AAEB0303DCF800A0120C13FA31
:1037B0008AF306FB02E20093009B4FEA124E92B29C
:1037C000C2EB1A4202EB2342BDF80030814543EAC6
:1037D00002434CF8043B4FEA224ADBD255F80B3047
:1037E0002BB9019B043B9D421A462ED33C613846BF
:1037F00001F0C4F8002824DB013628464FF0000C05
:1038000058F8042BD0F800E093B2ACEB0303120C91
:1038100013FA8EF3C2EB1E4202EB23429BB243EA41
:103820000243C14540F8043B4FEA224CE8D255F828
:10383000242005EB840322B9043B9D421A460AD397
:103840003C61304603B0BDE8F08F1268043B002AAB
:10385000CCD1013CC7E71268043B002AF0D1013CFF
:10386000EBE70020EEE700002DE9F04F2DED048B93
:1038700057EC106B93B0456ADDF88080069110EE2E
:1038800010AA044609920C93BB4675B9102000F0AB
:10389000DDFD0246606220B9A74BEA21A74801F08E
:1038A000D1FBC0E901550560C560636A196851B173
:1038B0005A684A60012393408B60204600F01CFE4A
:1038C000636A00221A603B1EAABF002323F0004B4C
:1038D000C8F800309A4BBCBF0122C8F8002033EA78
:1038E0000B031BD10C9A42F20F731360CBF313033B
:1038F000334300F09285219B63B9924B22E0924BB7
:1039000001930833219A1360019813B0BDEC048B26
:10391000BDE8F08F8B4B01930333F3E700220023C4
:1039200050465946FDF7F0F84BEC19AB804658B1BC
:103930000C9A01231360219B002B00F06B858348B8
:103940001860431E0193DFE74BEC10AB10AA11A9DE
:10395000204601F0B9F8CBF30A5508EE100A002D05
:1039600000F0848019EE903AC3F3130343F07F57BD
:10397000564647F44017A5F2FF35CDF83880744B12
:10398000002230463946FCF79FFC65A3D3E90023AB
:10399000FCF752FE64A3D3E90023FCF797FC06462C
:1039A00028460F46FCF7DEFD61A3D3E90023FCF7B0
:1039B00043FE02460B4630463946FCF787FC064676
:1039C0000F46FDF7E9F80022009000233046394603
:1039D000FDF7A4F850B10098FCF7C4FD32463B4611
:1039E000FDF792F810B9009B013B0093009B162B4A
:1039F0005AD8009A574B03EBC203D3E9002351EC8A
:103A0000190BFDF78BF8002850D0009B013B009369
:103A100000230B93109B5D1B6B1E059345BFC5F1E7
:103A200001030493002300234CBF05930493009BE0
:103A3000002B3DDB059B009A0A921344059300235B
:103A40000793069B092B00F28980052BC4BF043B1A
:103A50000693069BA3F10203CCBF00250125032B8F
:103A600000F28780DFE803F02D3A3859DDE9105382
:103A70001D4405F23243202BC1BFC3F1400305F2C0
:103A800012400BFA03F326FA00F0DABFC3F1200369
:103A900006FA03F01843FCF755FD01230646A1F191
:103AA000F877013D0E936AE70123B2E70B90B1E787
:103AB000049B009A9B1A04935342079300230A9392
:103AC000BFE700230893099B002B55DC0123CDE9B8
:103AD00002331A4609920CE00123F3E70023099A06
:103AE0000893009B134402930133012B0393B8BF47
:103AF0000123606A00224260042202F114069E4201
:103B000041683DD9204600F0B7FC019000283BD128
:103B1000114B02464FF4D571C0E60123DFE700BF29
:103B200061436F63A787D23FB3C8608B288AC63FC3
:103B3000FB799F501344D33F3D5D0008545D00085E
:103B40000000F07F395D0008305D00080D5D000861
:103B50000000F83F905E0008D25D000801250023B8
:103B6000069308954FF0FF33CDE90233002212236C
:103B7000B0E701230893F5E7099BCDE90233B8E7E5
:103B8000013141605200B8E7636A019A1A60039BF1
:103B90000E2B00F29D80002D00F09A80009B002BE0
:103BA00032DDB74A03F00F0302EBC303D3E9008908
:103BB000009BD8054FEA231716D5B24B51EC190BD1
:103BC000D3E90823FCF762FE07F00F0782468B4615
:103BD0000325AC4E57B942464B4650465946FCF772
:103BE00055FE82468B4628E00225F2E7F90708D504
:103BF00040464946D6E90023FCF71EFD01358046C4
:103C000089467F100836E5E700F09B80009B9D4FBA
:103C10005E429B4B06F00F0203EBC203D3E9002385
:103C200051EC190BFCF708FD361182468B46002338
:103C30000225002E7AD1002BD3D10B9B002B00F054
:103C40008280914B002250465946FCF767FF0028BE
:103C500079D0039B002B76D0029B002B36DD009B96
:103C6000504659465F1E0022884BFCF7E5FC029E39
:103C700082468B4601352846FCF774FC52465B466B
:103C8000FCF7DAFC824B0022FCF720FBD046D94639
:103C90008246A1F1507B002E58D17E4B0022404637
:103CA0004946FCF711FB52465B4680468946FCF7C5
:103CB00053FF002840F0958252460BF100434046E6
:103CC0004946FCF72BFF002840F089825BEC19ABDA
:103CD000119B002BC0F24881009A0E2A00F3448108
:103CE000674B03EBC203D3E90089099B002B80F2E9
:103CF000D580039B002B00F3D18040F06F82654B91
:103D0000002240464946FCF797FC52465B46FCF7CA
:103D100019FF039E3746002840F04582019D31235C
:103D200005F8013B009B0133009340E2F20705D503
:103D3000D7E90023FCF780FC013501237610083712
:103D400077E7022579E7009F039E94E701994C4BA2
:103D500031440D91089903EBC60353E9022300296E
:103D600043D04D490020FCF791FD52465B46FCF7DD
:103D7000ABFA019D82468B4649464046FCF70CFF54
:103D80000646FCF7EFFB02460B4640464946FCF769
:103D90009BFA303605F8016B52465B4680468946F1
:103DA000FCF7BCFE002863D142464B463649002052
:103DB000FCF78AFA52465B46FCF7B0FE002840F05A
:103DC000B5800D9B9D4281D0304B00225046594614
:103DD000FCF732FC2D4B82468B464046494600227A
:103DE000FCF72AFC80468946C6E750465946FCF750
:103DF00023FC0D9B019D0F9382468B46494640460E
:103E0000FCF7CAFE0646FCF7ADFB303602460B4611
:103E100040464946FCF758FA05F8016B0D9B9D4258
:103E2000804689464FF0000224D11B4B504659462C
:103E3000FCF74CFA02460B4640464946FCF78CFE1E
:103E4000002873D152465B4613490020FCF73CFA28
:103E500002460B4640464946FCF760FE00283FF408
:103E600035AF0F9D6B1E0F9315F8013C302BF8D02A
:103E7000009749E0054BFCF7DFFB80468946BDE72C
:103E8000905E0008685E00080000F03F00002440DB
:103E900000001C40000014400000E03F019D564619
:103EA0005F4642464B4630463946FCF7EFFCFCF78E
:103EB00073FE8246FCF756FB42464B46FCF7BCFBC2
:103EC00002460B46304639460AF13006FCF7FCF94B
:103ED00005F8016B019E039FAE1BB74202460B46DD
:103EE00035D1FCF7F3F942464B4606460F46FCF740
:103EF00033FED0B942464B4630463946FCF704FE05
:103F000010B11AF0010F10D1204618EE101A00F06F
:103F1000F3FA002300982B700C9B01301860219B52
:103F2000002B3FF4F1AC1D60EEE4009F2B461D46D4
:103F300013F8012D392A06D1019A9A42F7D1019935
:103F4000302201370A701A7801321A7090E7A64BB6
:103F50000022FCF771FB0022002306460F46FCF707
:103F6000D3FD00289DD0CFE7089A002A00F0D78023
:103F7000069A012A00F3BA800E9A002A00F0B28055
:103F800003F23343079E049D049A1A440492059A4F
:103F900001211A442046059200F066FB0746002DD9
:103FA0000CDD059B002B09DDAB42049AA8BF2B4614
:103FB000D21A0492059AED1AD31A0593079B1BB3E4
:103FC000089B002B00F0AF80002E13DD39463246EF
:103FD000204600F009FC18EE102A0146074620464C
:103FE00000F058FB18EE101A8046204600F084FAC4
:103FF00008EE108A079B9A1B06D018EE101A20466E
:1040000000F0F2FB08EE100A0121204600F02CFB24
:104010000A9B002B064640F388801A46014620463C
:1040200000F0E2FB069B012B064640F381804FF037
:104030000008336906EB8303186900F0C5FAC0F184
:104040002000059B184410F01F0000F09280C0F182
:104050002003042B40F38A80C0F11C00049B03441E
:104060000493059B034405440593049B002B07DD43
:1040700018EE101A1A46204600F010FC08EE100A3E
:10408000059B002B05DD31461A46204600F006FC54
:1040900006460B9B002B6ED018EE100A314600F03E
:1040A0006DFC002867DA009B013B18EE101A0093A4
:1040B0000A220023204600F041FA089B08EE100A6D
:1040C000002B00F0B181002339460A22204600F07F
:1040D00035FA029B002B074600F38E80069B022BCD
:1040E00051DC89E0109BC3F136034BE7039B5E1E56
:1040F000079BB342BFBF079B0796F21A0A9BB6BF46
:104100009B189E1B0A93039BB8BF0026002BB7BFCA
:10411000DDE90323DDE903359D1A002334E7079E1B
:10412000049D089F3BE7079A67E7069B012B18DC75
:10413000BAF1000F15D1CBF3130393B92BF0004361
:104140001B0D1B0583B1049B01330493059B0133B5
:1041500005934FF001080A9B002B7FF46AAF012002
:104160006FE74FF00008F6E79846F4E73FF47DAFBD
:1041700018461C3072E7039B002B37DC069B022B92
:1041800034DD039B0293029B6BB931460522204626
:1041900000F0D4F90146064618EE100A00F0EEFBD6
:1041A00000283FF7BBAD099B019DDB4300934FF017
:1041B00000083146204600F09FF9002F3FF4A4AEDE
:1041C000B8F1000F05D0B84503D04146204600F0B5
:1041D00093F93946204600F08FF995E600263746D8
:1041E000E1E70097374699E500002440089B002B43
:1041F00000F0CA80039B0293002D05DD39462A4654
:10420000204600F04BFB0746B8F1000F5BD0796801
:10421000204600F031F9054628B9874B024640F2A6
:10422000EA21FFF73BBB3A690232920007F10C0129
:104230000C3000F013F901222946204600F02EFB35
:10424000019B03F10109DDE90123134405930AF001
:104250000103B84604930746314618EE100AFFF7EB
:1042600077FA4146029000F1300A18EE100A00F089
:1042700085FB3A4603903146204600F09BFBC2681E
:1042800009F1FF3B054602BB014618EE100A00F09B
:1042900075FB024629462046079200F02DF9DDE91C
:1042A000063243EA0201049B0B434D460FD1BAF19B
:1042B000390F2AD0039B002B02DD029B03F1310A48
:1042C0008BF800A075E73846BAE70122E2E7039BC6
:1042D000002B04DB06990B4304990B4322D1002ADF
:1042E000EEDD18EE101A0122204600F0D7FA314612
:1042F00008EE100A00F042FB002803DCE0D11AF0BF
:10430000010FDDD0BAF1390FD7D139238BF8003046
:104310002B461D46013B15F8012C392A71D001327C
:104320001A7046E7002A07DDBAF1390FEDD00AF11D
:1043300001038BF800303CE7059B09F801AC994577
:1043400047D018EE101A00230A22204600F0F6F893
:10435000B84508EE100A4FF000034FF00A0241463C
:10436000204606D100F0EAF88046074609F1010927
:1043700072E700F0E3F83946804600230A2220461F
:1043800000F0DCF80746F1E7039B0293019D18EE6D
:10439000100A3146FFF7DCF900F1300A019B05F8FD
:1043A00001ABEA1A029B934209DD18EE101A0023B2
:1043B0000A22204600F0C2F808EE100AE7E7029B46
:1043C000002BC8BF1D46019BD8BF01251D444FF0DF
:1043D000000818EE101A0122204600F05FFA31465C
:1043E00008EE100A00F0CAFA002891DC02D11AF097
:1043F000010F8DD12B461D4613F8012D302AFAD01E
:10440000D7E6019A9A4284D1009B0133009331236D
:104410001370CEE6094BFFF795BA219B002B7FF472
:104420006EAA074BFFF78EBA029B002BAEDC069BF1
:10443000022B3FF7A8AEA9E7D25D00080C5D00088B
:10444000305D00080048704760010020024B0146C3
:10445000186800F017BC00BF0C0000200A4491420D
:1044600000F1FF3300D1704710B511F8014B03F88C
:10447000014F9142F9D110BD70B5466A04460D4610
:1044800076B91020FFF7E2FF0246606220B9184BB0
:104490001848662100F0D6FDC0E901660660C660D6
:1044A000666AF36883B1636ADB6853F82500B8B9BC
:1044B000012101FA05F6721D9200204600F060FB12
:1044C00060B1C0E901560EE021220421204600F02F
:1044D00057FB636AF060DB68002BE4D1002070BDFD
:1044E000026843F825200023C0E90333F7E700BF43
:1044F0003D5D0008E35D000870B5466A05460C4660
:1045000076B91020FFF7A2FF0246686220B9094B76
:1045100009488A2100F096FDC0E901660660C66080
:104520003CB16B6A6268DB6853F82210216043F883
:10453000224070BD3D5D0008E35D00082DE9F041BB
:104540000D6907460C461E4601F1140C0020DCF8EC
:10455000003099B202FB01611E0C0B0C02FB06330A
:1045600089B2013001EB034185424CF8041B4FEA4C
:104570001346ECDC0EB3A368AB4219DC6168384625
:104580000131FFF779FF804628B902460C4B0D48F0
:10459000B52100F057FD2269023204F10C019200AE
:1045A0000C30FFF75BFF21463846FFF7A5FF444676
:1045B00004EB850301355E6125612046BDE8F0818D
:1045C000D25D0008E35D0008030C1B04D3B90004AE
:1045D000102310F07F4F04BF0002083310F0704F1B
:1045E00004BF0001043310F0404F04BF80000233C9
:1045F000002805DB10F0804F03F1010308BF2023E2
:10460000184670470023E4E7036813F007020146E9
:104610000BD0DA0723D4980749BF5B089B08012019
:104620000B605CBF0B600220704798B2A8B91B0CEE
:104630001020DAB20AB908301B0A1A0704BF1B0996
:1046400004309A0704BF9B080230DA0703D45B08E2
:1046500000F1010005D00B6070471046E9E700202B
:10466000704720207047000010B50C460121FFF76D
:1046700003FF024628B9054B05484FF4A07100F02E
:10468000E1FC01234461036110BD00BFD25D00085D
:10469000E35D00082DE9F04F91460A69D9F8103022
:1046A0009A42B8BF0B460C46BCBF4C469946276998
:1046B000D9F810A0A368616807EB0A06B34285B079
:1046C000B8BF0131FFF7D8FE30B90246444B454828
:1046D00040F25D1100F0B6FC00F1140505EB860810
:1046E0002B460022434521D304F1140303EB870733
:1046F00009F1140303EB8A0202923A1B153A22F0E5
:104700000302043204F115018F4238BF04220192E2
:10471000029A03939A420CD8002E03DD58F8043D08
:10472000002B5AD0066105B0BDE8F08F43F8042B8A
:10473000D8E7B3F800A0BAF1000F24D004F1140EAA
:10474000A9464FF0000C5EF8042BD9F800101FFAB0
:1047500082FB89B20AFB0B114FEA124BD9F80020F9
:1047600061444FEA124C0AFB0BC202EB114289B2C0
:1047700041EA0241774549F8041B4FEA124CE2D85E
:10478000019A45F802C0039AB2F802900433B9F1D5
:10479000000F20D0296804F1140CAE464FF0000A37
:1047A000BCF800B0BEF8022009FB0B22924489B28B
:1047B00041EA0A414EF8041B5CF8042BBEF80010D5
:1047C000120C09FB021101EB1A4167454FEA114A2D
:1047D000E6D8019AA95004359AE7013E9CE700BF4C
:1047E000D25D0008E35D00082DE9F843154612F09C
:1047F000030206460F4607D0254C013A002354F821
:104800002220FFF79BFE0746AD103DD0746A7CB9AD
:104810001020FFF71BFE0246706228B91D4B1E4890
:104820004FF4D77100F00EFCC0E901440460C4608D
:10483000D6F82480D8F808404CB940F271213046AF
:10484000FFF712FF0023C8F80800044603604FF08A
:104850000009EB070AD5394622463046FFF71AFF12
:10486000394680463046FFF747FE47466D100BD06D
:10487000206838B9224621463046FFF70BFF2060FA
:10488000C0F800900446E4E73846BDE8F88300BF6E
:10489000585F00083D5D0008E35D00082DE9F04722
:1048A0000C464968236903EB6218A36807469146E2
:1048B0004FEA621A08F10106B3420BDB3846FFF7F4
:1048C000DBFD054648B902462A4B2B4840F2D91178
:1048D00000F0B8FB01315B00EEE7002300F11401AA
:1048E00000F110021846534537DB20692AEAEA7ABC
:1048F00004F1140319F01F0901EB8A0103EB800096
:104900002FD0C9F1200E8A464FF0000C1A6802FA27
:1049100009F242EA0C024AF8042B53F8042B98429D
:1049200022FA0EFCF2D8031B153B23F003030433D9
:1049300004F11502904238BF042341F803C0BCF1D2
:10494000000F01D008F10206013E38462E612146D3
:10495000FFF7D2FD2846BDE8F08742F8040F013387
:10496000C1E7043953F8042B41F8042F9842F9D8D1
:10497000EAE700BFD25D0008E35D000830B50269D8
:104980000C69121B0ED100F11403143103EB8400E7
:1049900001EB840150F8045D51F8044DA54203D0A9
:1049A00005D30122104630BD8342F3D3FAE74FF01E
:1049B000FF32F7E72DE9F84F0C4606461146204630
:1049C0009046FFF7DBFF051E10D129463046FFF762
:1049D00053FD30B93A4B024640F23221394800F0DB
:1049E00031FB0123C0E90435BDE8F88FA4BF43467D
:1049F000A0463046D8F80410A6BF1C460025012565
:104A0000FFF73AFD20B92E4B02464FF41071E5E74F
:104A1000D8F810702669C56004F1140908F114056E
:104A200000F1140E05EB870C09EB860608F1100265
:104A3000F246002159F8043B52F804BF1FFA83F8EC
:104A400011FA8BF11B0CA1EB0808C3EB1B4303EB22
:104A500028431FFA88F819144E4548EA03434AF8D8
:104A6000043BE7D8331B153B23F003030433153411
:104A7000A64238BF04231D4473449E462E46664515
:104A80000ED30CF10302521B22F00302033DAC458E
:104A900038BF00221A4452F8043D7BB10761A3E7F6
:104AA00056F8048B11FA88F2141404EB184492B2ED
:104AB00042EA04424EF8042B2114E0E7013FEAE702
:104AC000D25D0008E35D00082DE9F7438946012126
:104AD00057EC106B9046FFF7CFFC044630B9024606
:104AE000254B264840F20A3100F0ACFAC7F30A55CC
:104AF000C7F3130335BB002E019328D068460096F8
:104B0000FFF782FD009900B3019AC0F1200302FA79
:104B100003F30B43C24063610192019BA361002B2D
:104B200014BF022201222261D5B1A5F2334505440A
:104B3000C9F80050C0F13500C8F80000204603B0A5
:104B4000BDE8F08343F48013D5E76161E5E701A890
:104B5000FFF75AFD019B6361012222612030E3E7E8
:104B600004EB8203A0F23240C9F800001869FFF795
:104B70002BFDC0EB4210DFE7D25D0008E35D0008CB
:104B800037B5A1FB02244CB91146019200F07AF826
:104B9000019A054630B9284603B030BD0C220260A8
:104BA0000025F8E72146FEF741F9F4E737B500297B
:104BB00044D051F8043C0190002BA1F10404B8BF8B
:104BC000E41800F09BFA1E4A0198136833B9636039
:104BD000146003B0BDE8304000F096BAA34208D993
:104BE000256861198B4201BF19685B68491921600A
:104BF000EDE71A465B680BB1A342FAD91168551864
:104C0000A5420BD1246821445418A3421160E0D17D
:104C10001C685B68536021441160DAE702D90C23F9
:104C20000360D6E7256861198B4204BF19685B6889
:104C3000636004BF491921605460CAE703B030BD06
:104C40001803002070B50E4E0C463168054611B9A8
:104C500000F0E8F930602146284600F0E3F9431CF3
:104C60000AD0C41C24F00304A04207D0211A28460D
:104C700000F0D8F9013001D14FF0FF34204670BD6B
:104C80001C0300202DE9F041CD1C25F0030508355B
:104C90000C2D38BF0C25002D074601DBA94205D994
:104CA0000C233B6000263046BDE8F0812E4E00F01C
:104CB00025FA33681C4634BB29463846FFF7C2FF45
:104CC000431C04464DD134682646002E40D123684B
:104CD0003146384604EB030800F0A4F980453AD188
:104CE000216803356D1A25F0030508350C2D38BFF2
:104CF0000C2529463846FFF7A5FF01302BD0236845
:104D00002B4423600EE02268521B1ED40B2A16D9B6
:104D10006119A342256018BF5960636808BF3160FC
:104D200062514B60384604F10B0600F0EDF926F0B5
:104D30000706231DF21AB6D09B1BA350B3E7626887
:104D4000A3420CBF32605A60ECE723466468B2E7C6
:104D500034467668B9E70C233B60384600F0D4F956
:104D6000A1E72560DEE700BF180300202DE9F0472A
:104D70008E689E4282460C4690461F4638D88A89E5
:104D800012F4906F32D025680969A5EB01096569B5
:104D900005EB450505EBD57501334B446D109D4280
:104DA00038BF1D46530531D52946FFF76BFF064630
:104DB00050B90C23CAF80030A38943F04003A38103
:104DC0004FF0FF30BDE8F08721694A46FFF746FB08
:104DD000A38923F4906343F08003A3812661656176
:104DE0004E44A5EB09052660A5603E46BE4200D9AB
:104DF0003E4620683246414600F066F9A3689B1B98
:104E0000A3602368334423600020DBE72A4600F0D8
:104E100081F906460028E1D121695046FFF7C6FE18
:104E2000C7E700002DE9F04F98468B891B069DB01F
:104E300007460D4614460ED50B6963B94021FFF7AE
:104E400021FF2860286120B90C233B604FF0FF3020
:104E5000D1E040236B610023099320238DF8293092
:104E6000CDF80C803023DFF8A8818DF82A304FF080
:104E7000010923469A4613F8012B0AB1252AF9D1D4
:104E8000BAEB040B0BD05B46224629463846FFF7A7
:104E90006DFF013000F0AA80099A5A4409929AF8ED
:104EA0000030002B00F0A28000234FF0FF32CDE94C
:104EB00005230AF1010A049307938DF853301A93DE
:104EC0005446052214F8011B5148FBF7A9F9049A2E
:104ED000D8B9D00644BF20238DF85330110744BF02
:104EE0002B238DF853309AF800302A2B15D0079ACF
:104EF000544600204FF00A0C214611F8013B303B8C
:104F0000092B4ED9B0B1079214E0A0EB080309FABF
:104F100003F313430493A246D2E7039B191D1B68B6
:104F20000391002BBBBF5B4242F002020793079341
:104F3000B8BF049223782E2B0CD163782A2B35D15D
:104F4000039B1A1D1B680392002BB8BF4FF0FF3361
:104F500002340593DFF8C8A0217803225046FBF7FE
:104F60005FF940B14023A0EB0A0003FA00F0049B74
:104F700003430134049314F8011B26488DF82810CC
:104F80000622FBF74DF9002838D0234B1BBB039BAF
:104F9000073323F0070308330393099B3344099332
:104FA00067E70CFB02320C460120A5E70023013421
:104FB000059319464FF00A0C204610F8012B303AA1
:104FC000092A03D9002BC5D00591C3E70CFB0121A9
:104FD00004460123F0E703AB00932A460F4B04A9D4
:104FE0003846FDF7CBFF421C0646D6D1AB895B069F
:104FF0003FF52CAF09981DB0BDE8F08F03AB0093CF
:105000002A46064B04A93846FEF75CFAEBE700BFD8
:10501000645F00086E5F00087D2F00086D4D00087A
:105020006A5F000838B5064D0023044608462B6029
:1050300000F01EFE431C02D12B6803B1236038BD73
:10504000200300201FB514461A46094B1B6805466D
:10505000D8684CB1074B0091CDE9013406492B4685
:1050600000F00EF800F0ACFA044B1C46F3E700BF6A
:105070000C000020755F0008825F0008B05F000828
:105080000EB403B5014603AB054853F8042B006882
:10509000019300F097F802B05DF804EB03B070479D
:1050A0000C00002082B001B901A942B14BB11378C4
:1050B0000B601278101E18BF012002B07047104616
:1050C000FBE76FF00100F8E7884210B501EB02043E
:1050D00002D98442234607D8431EA14208D011F8C2
:1050E000012B03F8012FF8E7024401468A4200D160
:1050F00010BD13F8014D02F8014DF7E7014800F02B
:105100001FBC00BF24030020014800F01ABC00BFF0
:10511000240300202DE9F041804614460E4621B9B3
:10512000BDE8F0411146FFF7ADBD2AB9FFF73EFDDE
:1051300025462846BDE8F08100F06AFC8442074617
:1051400002D8B4EB500F12D821464046FFF79AFD23
:1051500005460028EDD0BC422246314628BF3A46DB
:10516000FFF77CF931464046FFF720FDE1E7354681
:10517000DFE79368013B002B10B4936008DA946971
:10518000A34201DB0A2903D15DF8044B00F04AB9C0
:105190001368581C1060197008465DF8044B70477E
:1051A000F8B506460F461446D518AC4201D100208A
:1051B00007E014F8011B3A463046FFF7DAFF431CBC
:1051C000F3D1F8BD2DE9F04F0D469DB01446984639
:1051D000064618B183690BB900F014FB894B9D4258
:1051E0001BD175686B6ED90705D4AB899A0502D4BB
:1051F000A86D00F0A5FBAB891B0701D52B69EBB9A6
:105200002946304600F06EF9C0B16B6EDC070ED552
:105210004FF0FF301DB0BDE8F08F7B4B9D4201D1B8
:10522000B568DFE7794B9D4208BFF568DAE7AB89DF
:105230009805EDD4A86D00F084FBE9E700230993FD
:1052400020238DF82930CDF80C803023DFF8C08181
:105250008DF82A304FF0010923469A4613F8012BA6
:105260000AB1252AF9D1BAEB040B0BD05B462246D2
:1052700029463046FFF794FF013000F0AA80099AD2
:105280005A4409929AF80030002B00F0A2800023C3
:105290004FF0FF32CDE905230AF1010A0493079389
:1052A0008DF853301A935446052214F8011B5848C0
:1052B000FAF7B6FF049AD8B9D10644BF20238DF877
:1052C0005330130744BF2B238DF853309AF8003026
:1052D0002A2B15D0079A544600204FF00A0C21467D
:1052E00011F8013B303B092B4ED9B0B1079214E0C5
:1052F000A0EB080309FA03F313430493A246D2E791
:10530000039B191D1B680391002BBBBF5B4242F03E
:10531000020207930793B8BF049223782E2B0CD177
:1053200063782A2B35D1039B1A1D1B680392002B2F
:10533000B8BF4FF0FF3302340593DFF8E4A02178C3
:1053400003225046FAF76CFF40B14023A0EB0A005D
:1053500003FA00F0049B03430134049314F8011B87
:105360002C488DF828100622FAF75AFF00283FD063
:10537000294B1BBB039B073323F00703083303931D
:10538000099B3B44099367E70CFB02320C46012062
:10539000A5E700230134059319464FF00A0C204677
:1053A00010F8012B303A092A03D9002BC5D00591FA
:1053B000C3E70CFB012104460123F0E703AB009394
:1053C0002A46164B04A93046FDF7D8FD0746781C3F
:1053D000D6D16B6ED90705D4AB899A0502D4A86DD6
:1053E00000F0AFFAAB895B063FF512AF099811E701
:1053F00003AB00932A46094B04A93046FEF762F836
:10540000E4E700BFDC600008FC600008BC60000846
:10541000645F00086E5F00087D2F0008A15100083E
:105420006A5F0008F8B50E461446054618B1836950
:105430000BB900F0E7F9214B9C422BD16C68A369B2
:10544000A360A3891A072FD523696BB3236920684A
:10545000C01A6369F6B28342374604DC2146284607
:1054600000F03CF930BBA368013BA36023685A1CE1
:1054700022601E7063690130834204D0A389DB0778
:1054800006D50A2E04D12146284600F027F988B90E
:105490003846F8BD0A4B9C4201D1AC68CFE7094BB6
:1054A0009C4208BFEC68CAE72146284600F01AF87B
:1054B0000028CBD04FF0FF37EAE700BFDC600008E0
:1054C000FC600008BC60000849B1FF2A85BF8A2340
:1054D00003600A704FF0FF3098BF01207047084604
:1054E00070470000324B70B51D6806460C4625B16A
:1054F000AB6913B9284600F085F92E4B9C420FD1B9
:105500006C68A389B4F90C2019072CD4DD0611D4DA
:105510000923336042F04003A3814FF0FF303EE0A7
:10552000254B9C4201D1AC68EBE7244B9C4208BF61
:10553000EC68E6E7580712D5616B41B104F144030A
:10554000994202D03046FFF731FB00236363A38901
:1055500023F02403A3810023636023692360A389CC
:1055600043F00803A38123694BB9A38903F4207393
:10557000B3F5007F03D02146304600F009FAA08938
:10558000B4F90C2010F001030AD00023A360636972
:105590005B42A361236943B910F08000BAD170BDAA
:1055A000810758BF6369A360F4E70020F7E700BFF5
:1055B0000C000020DC600008FC600008BC600008F3
:1055C00008B5062000F054FA012000F067FB000047
:1055D0008A892DE9F041054610070C4658D44B68DE
:1055E000002B05DC0B6C002B02DC0020BDE8F081F9
:1055F000E66A002EF9D0002312F480522F682B6047
:1056000032D0606DA3895A0705D56368C01A636BF1
:105610000BB1236CC01A00230246E66A216A2846B1
:10562000B047431CA38906D129681D292CD82A4AD2
:10563000CA40D60728D500226260D90422692260B8
:1056400004D5421C01D12B6803B96065616B2F60E2
:105650000029CAD004F14403994202D02846FFF73A
:10566000A5FA00206063C1E7216A01232846B047FC
:10567000411CC7D12B68002BC4D01D2B01D0162B89
:1056800001D12F60B1E7A38943F04003A381ADE7C7
:105690000F69002FA9D093070E6808BF4B690F60F0
:1056A00018BF0023A6EB07088B60B8F1000F9CDD44
:1056B000216AA66A43463A462846B047002806DCD7
:1056C000A38943F04003A3814FF0FF308EE70744E6
:1056D000A8EB0008E9E700BF0100402038B50B69DE
:1056E00005460C4613B90025284638BD18B1836914
:1056F0000BB900F087F8144B9C421BD16C68B4F9CD
:105700000C30002BEFD0626ED00704D4990502D480
:10571000A06D00F015F928462146FFF759FF636E8A
:10572000DA070546E0D4A3899B05DDD4A06D00F01F
:1057300008F9D9E7054B9C4201D1AC68DFE7044B7F
:105740009C4208BFEC68DAE7DC600008FC600008F7
:10575000BC600008002310B50446C0E90033C0E96E
:105760000433836081814366C281836119460822C4
:105770005C30FDF75BFB054B6362054BA362054B99
:10578000E362054B2462236310BD00BFA95A0008E1
:10579000CB5A0008035B0008275B0008014900F0B2
:1057A000AFB800BFDD56000870B568224D1E5543E6
:1057B0000E4605F17401FFF765FA044640B1002179
:1057C000C0E900160C30A06005F16802FDF72EFB61
:1057D000204670BD014800F0B3B800BF250300208B
:1057E000014800F0AEB800BF25030020014800F0DA
:1057F000A7B800BF26030020014800F0A2B800BFF0
:105800002603002010B50446FFF7F0FFA3691BB183
:10581000BDE81040FFF7F0BFC4E912332365134B16
:10582000134A1B68A262A34204BF0123A36120465E
:1058300000F020F86060204600F01CF8A0602046D0
:1058400000F018F80022E06004216068FFF782FF92
:10585000A06801220921FFF77DFFE06802221221E2
:10586000FFF778FF0123A361D2E700BFF85C0008CF
:105870009D570008F8B50746FFF7ACFF1E4B1E68A2
:10588000B36913B93046FFF7BDFF4836D6E9013496
:10589000013B03D533680BB33668F7E7B4F90C5016
:1058A000D5B9164BE36004F15800656600F047F87F
:1058B000FFF796FFC4E90155C4E904552560A561C9
:1058C0000822294604F15C00FDF7B0FAC4E90D5541
:1058D000C4E912552046F8BD6834D9E7042138469A
:1058E000FFF762FF044630600028D5D1FFF778FF4C
:1058F0000C233B60EEE700BFF85C00080100FFFFEF
:105900002DE9F8430646884600F148040027D4E90B
:105910000195B9F1010905D52468002CF7D1384665
:10592000BDE8F883AB89012B07D9B5F90E300133F7
:1059300003D029463046C04707436835E9E770473A
:105940007047704770B50E46B1F90E10002996B039
:1059500014461D4608DAB6F90C3000222A601A06F1
:1059600010D44FF480630EE06A4600F003F900287B
:10597000F1DB019A02F47042A2F500535A425A41F7
:105980002A60EEE740230020236016B070BD0000BF
:105990008B8973B59D0706460C4607D504F147036E
:1059A000236023610123636102B070BD01AB6A46CD
:1059B000FFF7C8FF009905463046FFF763F948B97D
:1059C000B4F90C309A05EFD423F0030343F002033B
:1059D000A381E3E70D4BB362A389206043F080030A
:1059E000A381009B6361019B20615BB1B4F90E1040
:1059F000304600F0D1F828B1A38923F0030343F027
:105A00000103A381A0890543A581CDE79D57000827
:105A100051F8043C181F002BBCBF0B58C01870472E
:105A20001F2938B504460D4604D9162303604FF0EC
:105A3000FF3038BD426C12B152F821304BB92046CC
:105A400000F030F82A4601462046BDE8384000F014
:105A500017B8012B0AD0591C03D11623036001206B
:105A6000E7E7002442F82540284698470020E0E771
:105A7000024B01461868FFF7D3BF00BF0C0000209F
:105A800038B5074D00230446084611462B6000F048
:105A9000D7F8431C02D12B6803B1236038BD00BF87
:105AA0002003002000F0BCB810B50C46B1F90E1070
:105AB00000F094F80028ABBF636DA3891B1823F492
:105AC0008053ACBF6365A38110BD2DE9F0411F4633
:105AD0008B89DB0505460C46164605D5B1F90E1037
